{
  "_format": "hh-sol-artifact-1",
  "contractName": "MockUSD",
  "sourceName": "src/mocks/MockUSD.sol",
  "abi": [
    {
      "anonymous": false,
      "inputs": [
        {
          "indexed": true,
          "internalType": "address",
          "name": "owner",
          "type": "address"
        },
        {
          "indexed": true,
          "internalType": "address",
          "name": "spender",
          "type": "address"
        },
        {
          "indexed": false,
          "internalType": "uint256",
          "name": "value",
          "type": "uint256"
        }
      ],
      "name": "Approval",
      "type": "event"
    },
    {
      "anonymous": false,
      "inputs": [
        {
          "indexed": true,
          "internalType": "address",
          "name": "from",
          "type": "address"
        },
        {
          "indexed": true,
          "internalType": "address",
          "name": "to",
          "type": "address"
        },
        {
          "indexed": false,
          "internalType": "uint256",
          "name": "value",
          "type": "uint256"
        }
      ],
      "name": "Transfer",
      "type": "event"
    },
    {
      "inputs": [
        {
          "internalType": "address",
          "name": "",
          "type": "address"
        },
        {
          "internalType": "address",
          "name": "",
          "type": "address"
        }
      ],
      "name": "allowance",
      "outputs": [
        {
          "internalType": "uint256",
          "name": "",
          "type": "uint256"
        }
      ],
      "stateMutability": "view",
      "type": "function"
    },
    {
      "inputs": [
        {
          "internalType": "address",
          "name": "spender",
          "type": "address"
        },
        {
          "internalType": "uint256",
          "name": "value",
          "type": "uint256"
        }
      ],
      "name": "approve",
      "outputs": [
        {
          "internalType": "bool",
          "name": "",
          "type": "bool"
        }
      ],
      "stateMutability": "nonpayable",
      "type": "function"
    },
    {
      "inputs": [
        {
          "internalType": "address",
          "name": "",
          "type": "address"
        }
      ],
      "name": "balanceOf",
      "outputs": [
        {
          "internalType": "uint256",
          "name": "",
          "type": "uint256"
        }
      ],
      "stateMutability": "view",
      "type": "function"
    },
    {
      "inputs": [],
      "name": "decimals",
      "outputs": [
        {
          "internalType": "uint8",
          "name": "",
          "type": "uint8"
        }
      ],
      "stateMutability": "view",
      "type": "function"
    },
    {
      "inputs": [
        {
          "internalType": "address",
          "name": "to",
          "type": "address"
        },
        {
          "internalType": "uint256",
          "name": "value",
          "type": "uint256"
        }
      ],
      "name": "mint",
      "outputs": [],
      "stateMutability": "nonpayable",
      "type": "function"
    },
    {
      "inputs": [],
      "name": "name",
      "outputs": [
        {
          "internalType": "string",
          "name": "",
          "type": "string"
        }
      ],
      "stateMutability": "view",
      "type": "function"
    },
    {
      "inputs": [],
      "name": "symbol",
      "outputs": [
        {
          "internalType": "string",
          "name": "",
          "type": "string"
        }
      ],
      "stateMutability": "view",
      "type": "function"
    },
    {
      "inputs": [
        {
          "internalType": "address",
          "name": "to",
          "type": "address"
        },
        {
          "internalType": "uint256",
          "name": "value",
          "type": "uint256"
        }
      ],
      "name": "transfer",
      "outputs": [
        {
          "internalType": "bool",
          "name": "",
          "type": "bool"
        }
      ],
      "stateMutability": "nonpayable",
      "type": "function"
    },
    {
      "inputs": [
        {
          "internalType": "address",
          "name": "from",
          "type": "address"
        },
        {
          "internalType": "address",
          "name": "to",
          "type": "address"
        },
        {
          "internalType": "uint256",
          "name": "value",
          "type": "uint256"
        }
      ],
      "name": "transferFrom",
      "outputs": [
        {
          "internalType": "bool",
          "name": "",
          "type": "bool"
        }
      ],
      "stateMutability": "nonpayable",
      "type": "function"
    }
  ],
  "bytecode": "0x6080604052346100c557600061001581546100ca565b601f811161009b575b50600e66135bd8dad554d160ca1b01815560019061003d6001546100ca565b90601f8211610071575b600863135554d160e21b016001556002805460ff191660061790556040516106cd90816101058239f35b60018152601f60208220920160051c8201915b8281106100915750610047565b8181558301610084565b818052601f60208320910160051c8101905b8181106100ba575061001e565b8281556001016100ad565b600080fd5b90600182811c921680156100fa575b60208310146100e457565b634e487b7160e01b600052602260045260246000fd5b91607f16916100d956fe6080604081815260048036101561001557600080fd5b600092833560e01c90816306fdde031461052857508063095ea7b3146104ba57806323b872dd14610399578063313ce5671461037757806340c10f19146102f057806370a08231146102b857806395d89b4114610190578063a9059cbb146100d15763dd62ed3e1461008657600080fd5b346100cd57816003193601126100cd5760209282916100a3610666565b6100ab610681565b6001600160a01b03918216845291865283832091168252845220549051908152f35b8280fd5b50913461018d578160031936011261018d576100eb610666565b60243590338352600360205281848420541061015b576020945083903384526003865281842083815403905560018060a01b0316928381522081815401905582519081527fddf252ad1be2c89b69c2b068fc378daa952ba7f163c4a11628f55a4df523b3ef843392a35160018152f35b835162461bcd60e51b8152602081870152600c60248201526b1a5b9cdd59999a58da595b9d60a21b6044820152606490fd5b80fd5b509190346102b457816003193601126102b4578051908260018054908160011c90600183169283156102aa575b60209384841081146102975783885290811561027b5750600114610225575b505050829003601f01601f191682019267ffffffffffffffff841183851017610212575082918261020e92528261061d565b0390f35b634e487b7160e01b815260418552602490fd5b600187529192508591837fb10e2d527612073b26eecdfd717e6a320cf44b4afac2b0732d9fcbe2b7fa0cf65b83851061026757505050508301013880806101dc565b805488860183015293019284908201610251565b60ff1916878501525050151560051b84010190503880806101dc565b634e487b7160e01b895260228a52602489fd5b91607f16916101bd565b5080fd5b5050346102b45760203660031901126102b45760209181906001600160a01b036102e0610666565b1681526003845220549051908152f35b5090346100cd57806003193601126100cd5761030a610666565b6001600160a01b0316808452600360205281842080549193602435939280850192919083106103645750555190815282907fddf252ad1be2c89b69c2b068fc378daa952ba7f163c4a11628f55a4df523b3ef90602090a380f35b634e487b7160e01b875260119052602486fd5b5050346102b457816003193601126102b45760209060ff600254169051908152f35b50913461018d57606036600319011261018d576103b4610666565b6103bc610681565b906044359060018060a01b03809116928385526020966003885283878720541061048d57848652808852868620338752885283878720541061045e5787927fddf252ad1be2c89b69c2b068fc378daa952ba7f163c4a11628f55a4df523b3ef9492889287895285528288203389528552828820848154039055868852600385528288208481540390551695868152208181540190558551908152a35160018152f35b865162461bcd60e51b81529081018890526009602482015268616c6c6f77616e636560b81b6044820152606490fd5b865162461bcd60e51b8152908101889052600760248201526662616c616e636560c81b6044820152606490fd5b50346100cd57816003193601126100cd576020926104d6610666565b918360243592839233825287528181209460018060a01b0316948582528752205582519081527f8c5be1e5ebec7d5bd14f71427d1e84f3dd0314c0f7b2291e5b200ac8c7c3b925843392a35160018152f35b84915083346100cd57826003193601126100cd5782835460018160011c9060018316928315610613575b6020938484108114610297578388529081156105f757506001146105a257505050829003601f01601f191682019267ffffffffffffffff841183851017610212575082918261020e92528261061d565b8680529192508591837f290decd9548b62a8d60345a988386fc84ba6bc95484008f6362f93160ef3e5635b8385106105e357505050508301018580806101dc565b8054888601830152930192849082016105cd565b60ff1916878501525050151560051b84010190508580806101dc565b91607f1691610552565b6020808252825181830181905290939260005b82811061065257505060409293506000838284010152601f8019910116010190565b818101860151848201604001528501610630565b600435906001600160a01b038216820361067c57565b600080fd5b602435906001600160a01b038216820361067c5756fea264697066735822122025ab749a27682303de3243936e37e0e2e7297ea960ed4b5718038daf32e11dea64736f6c63430008180033",
  "linkReferences": {},
  "deployedLinkReferences": {}
}