{"src/credit/CreditScoreOracle.sol":{"CreditScoreOracle":{"abi":[{"inputs":[{"internalType":"address","name":"_u","type":"address"}],"stateMutability":"nonpayable","type":"constructor"},{"anonymous":false,"inputs":[{"indexed":true,"internalType":"address","name":"user","type":"address"},{"indexed":false,"internalType":"uint16","name":"score","type":"uint16"},{"indexed":false,"internalType":"uint64","name":"at","type":"uint64"}],"name":"ScoreSet","type":"event"},{"inputs":[{"internalType":"address","name":"u","type":"address"}],"name":"getScore","outputs":[{"internalType":"uint16","name":"","type":"uint16"},{"internalType":"uint64","name":"","type":"uint64"}],"stateMutability":"view","type":"function"},{"inputs":[{"internalType":"address","name":"","type":"address"}],"name":"scores","outputs":[{"internalType":"uint16","name":"score","type":"uint16"},{"internalType":"uint64","name":"updatedAt","type":"uint64"}],"stateMutability":"view","type":"function"},{"inputs":[{"internalType":"address","name":"u","type":"address"},{"internalType":"uint16","name":"s","type":"uint16"}],"name":"setScore","outputs":[],"stateMutability":"nonpayable","type":"function"},{"inputs":[],"name":"updater","outputs":[{"internalType":"address","name":"","type":"address"}],"stateMutability":"view","type":"function"}],"evm":{"bytecode":{"linkReferences":{},"object":"60803461007457601f6103ba38819003918201601f19168301916001600160401b038311848410176100795780849260209460405283398101031261007457516001600160a01b0381169081900361007457600080546001600160a01b03191691909117905560405161032a90816100908239f35b600080fd5b634e487b7160e01b600052604160045260246000fdfe60806040818152600436101561001457600080fd5b600091823560e01c90816328dd9b391461014c5750806376dd110f146100ef578063d47875d0146100785763df034cd01461004e57600080fd5b34610074578160031936011261007457905490516001600160a01b039091168152602090f35b5080fd5b5034610074576020366003190112610074576020916100eb9082906001600160a01b036100a36102a3565b1681526001855220916100b46102be565b925461ffff811680855260109190911c67ffffffffffffffff16949093018490525191825260208201929092529081906040820190565b0390f35b5034610074576020366003190112610074576100eb9181906001600160a01b036101176102a3565b1681526001602090815291902054915161ffff8316815260109290921c67ffffffffffffffff16908201529081906040820190565b839150346100745782600319360112610074576101676102a3565b9060243561ffff928382169081830361029f5785546001600160a01b0394908516330361026f57506103e88211610240579561023a917fdc34a6bfebef956ac3ab1fca70a6583029a19e4e857a35ba563731cda862f50095969767ffffffffffffffff4216956101d56102be565b92835260208301918783521697888a526001602052838a2092511669ffffffffffffffff00008354925160101b169169ffffffffffffffffffff191617179055519283928390929167ffffffffffffffff60209161ffff604085019616845216910152565b0390a280f35b865162461bcd60e51b815260206004820152600860248201526706d617820313030360c41b6044820152606490fd5b62461bcd60e51b815260206004820152600b60248201526a3737ba103ab83230ba32b960a91b6044820152606490fd5b8580fd5b600435906001600160a01b03821682036102b957565b600080fd5b604051906040820182811067ffffffffffffffff8211176102de57604052565b634e487b7160e01b600052604160045260246000fdfea2646970667358221220095bb9577600a7cf761d9574c4d97dacb1e47ec68d089ecdfb5650fc4b66317b64736f6c63430008180033","opcodes":"PUSH1 0x80 CALLVALUE PUSH2 0x74 JUMPI PUSH1 0x1F PUSH2 0x3BA CODESIZE DUP2 SWAP1 SUB SWAP2 DUP3 ADD PUSH1 0x1F NOT AND DUP4 ADD SWAP2 PUSH1 0x1 PUSH1 0x1 PUSH1 0x40 SHL SUB DUP4 GT DUP5 DUP5 LT OR PUSH2 0x79 JUMPI DUP1 DUP5 SWAP3 PUSH1 0x20 SWAP5 PUSH1 0x40 MSTORE DUP4 CODECOPY DUP2 ADD SUB SLT PUSH2 0x74 JUMPI MLOAD PUSH1 0x1 PUSH1 0x1 PUSH1 0xA0 SHL SUB DUP2 AND SWAP1 DUP2 SWAP1 SUB PUSH2 0x74 JUMPI PUSH1 0x0 DUP1 SLOAD PUSH1 0x1 PUSH1 0x1 PUSH1 0xA0 SHL SUB NOT AND SWAP2 SWAP1 SWAP2 OR SWAP1 SSTORE PUSH1 0x40 MLOAD PUSH2 0x32A SWAP1 DUP2 PUSH2 0x90 DUP3 CODECOPY RETURN JUMPDEST PUSH1 0x0 DUP1 REVERT JUMPDEST PUSH4 0x4E487B71 PUSH1 0xE0 SHL PUSH1 0x0 MSTORE PUSH1 0x41 PUSH1 0x4 MSTORE PUSH1 0x24 PUSH1 0x0 REVERT INVALID PUSH1 0x80 PUSH1 0x40 DUP2 DUP2 MSTORE PUSH1 0x4 CALLDATASIZE LT ISZERO PUSH2 0x14 JUMPI PUSH1 0x0 DUP1 REVERT JUMPDEST PUSH1 0x0 SWAP2 DUP3 CALLDATALOAD PUSH1 0xE0 SHR SWAP1 DUP2 PUSH4 0x28DD9B39 EQ PUSH2 0x14C JUMPI POP DUP1 PUSH4 0x76DD110F EQ PUSH2 0xEF JUMPI DUP1 PUSH4 0xD47875D0 EQ PUSH2 0x78 JUMPI PUSH4 0xDF034CD0 EQ PUSH2 0x4E JUMPI PUSH1 0x0 DUP1 REVERT JUMPDEST CALLVALUE PUSH2 0x74 JUMPI DUP2 PUSH1 0x3 NOT CALLDATASIZE ADD SLT PUSH2 0x74 JUMPI SWAP1 SLOAD SWAP1 MLOAD PUSH1 0x1 PUSH1 0x1 PUSH1 0xA0 SHL SUB SWAP1 SWAP2 AND DUP2 MSTORE PUSH1 0x20 SWAP1 RETURN JUMPDEST POP DUP1 REVERT JUMPDEST POP CALLVALUE PUSH2 0x74 JUMPI PUSH1 0x20 CALLDATASIZE PUSH1 0x3 NOT ADD SLT PUSH2 0x74 JUMPI PUSH1 0x20 SWAP2 PUSH2 0xEB SWAP1 DUP3 SWAP1 PUSH1 0x1 PUSH1 0x1 PUSH1 0xA0 SHL SUB PUSH2 0xA3 PUSH2 0x2A3 JUMP JUMPDEST AND DUP2 MSTORE PUSH1 0x1 DUP6 MSTORE KECCAK256 SWAP2 PUSH2 0xB4 PUSH2 0x2BE JUMP JUMPDEST SWAP3 SLOAD PUSH2 0xFFFF DUP2 AND DUP1 DUP6 MSTORE PUSH1 0x10 SWAP2 SWAP1 SWAP2 SHR PUSH8 0xFFFFFFFFFFFFFFFF AND SWAP5 SWAP1 SWAP4 ADD DUP5 SWAP1 MSTORE MLOAD SWAP2 DUP3 MSTORE PUSH1 0x20 DUP3 ADD SWAP3 SWAP1 SWAP3 MSTORE SWAP1 DUP2 SWAP1 PUSH1 0x40 DUP3 ADD SWAP1 JUMP JUMPDEST SUB SWAP1 RETURN JUMPDEST POP CALLVALUE PUSH2 0x74 JUMPI PUSH1 0x20 CALLDATASIZE PUSH1 0x3 NOT ADD SLT PUSH2 0x74 JUMPI PUSH2 0xEB SWAP2 DUP2 SWAP1 PUSH1 0x1 PUSH1 0x1 PUSH1 0xA0 SHL SUB PUSH2 0x117 PUSH2 0x2A3 JUMP JUMPDEST AND DUP2 MSTORE PUSH1 0x1 PUSH1 0x20 SWAP1 DUP2 MSTORE SWAP2 SWAP1 KECCAK256 SLOAD SWAP2 MLOAD PUSH2 0xFFFF DUP4 AND DUP2 MSTORE PUSH1 0x10 SWAP3 SWAP1 SWAP3 SHR PUSH8 0xFFFFFFFFFFFFFFFF AND SWAP1 DUP3 ADD MSTORE SWAP1 DUP2 SWAP1 PUSH1 0x40 DUP3 ADD SWAP1 JUMP JUMPDEST DUP4 SWAP2 POP CALLVALUE PUSH2 0x74 JUMPI DUP3 PUSH1 0x3 NOT CALLDATASIZE ADD SLT PUSH2 0x74 JUMPI PUSH2 0x167 PUSH2 0x2A3 JUMP JUMPDEST SWAP1 PUSH1 0x24 CALLDATALOAD PUSH2 0xFFFF SWAP3 DUP4 DUP3 AND SWAP1 DUP2 DUP4 SUB PUSH2 0x29F JUMPI DUP6 SLOAD PUSH1 0x1 PUSH1 0x1 PUSH1 0xA0 SHL SUB SWAP5 SWAP1 DUP6 AND CALLER SUB PUSH2 0x26F JUMPI POP PUSH2 0x3E8 DUP3 GT PUSH2 0x240 JUMPI SWAP6 PUSH2 0x23A SWAP2 PUSH32 0xDC34A6BFEBEF956AC3AB1FCA70A6583029A19E4E857A35BA563731CDA862F500 SWAP6 SWAP7 SWAP8 PUSH8 0xFFFFFFFFFFFFFFFF TIMESTAMP AND SWAP6 PUSH2 0x1D5 PUSH2 0x2BE JUMP JUMPDEST SWAP3 DUP4 MSTORE PUSH1 0x20 DUP4 ADD SWAP2 DUP8 DUP4 MSTORE AND SWAP8 DUP9 DUP11 MSTORE PUSH1 0x1 PUSH1 0x20 MSTORE DUP4 DUP11 KECCAK256 SWAP3 MLOAD AND PUSH10 0xFFFFFFFFFFFFFFFF0000 DUP4 SLOAD SWAP3 MLOAD PUSH1 0x10 SHL AND SWAP2 PUSH10 0xFFFFFFFFFFFFFFFFFFFF NOT AND OR OR SWAP1 SSTORE MLOAD SWAP3 DUP4 SWAP3 DUP4 SWAP1 SWAP3 SWAP2 PUSH8 0xFFFFFFFFFFFFFFFF PUSH1 0x20 SWAP2 PUSH2 0xFFFF PUSH1 0x40 DUP6 ADD SWAP7 AND DUP5 MSTORE AND SWAP2 ADD MSTORE JUMP JUMPDEST SUB SWAP1 LOG2 DUP1 RETURN JUMPDEST DUP7 MLOAD PUSH3 0x461BCD PUSH1 0xE5 SHL DUP2 MSTORE PUSH1 0x20 PUSH1 0x4 DUP3 ADD MSTORE PUSH1 0x8 PUSH1 0x24 DUP3 ADD MSTORE PUSH8 0x6D6178203130303 PUSH1 0xC4 SHL PUSH1 0x44 DUP3 ADD MSTORE PUSH1 0x64 SWAP1 REVERT JUMPDEST PUSH3 0x461BCD PUSH1 0xE5 SHL DUP2 MSTORE PUSH1 0x20 PUSH1 0x4 DUP3 ADD MSTORE PUSH1 0xB PUSH1 0x24 DUP3 ADD MSTORE PUSH11 0x3737BA103AB83230BA32B9 PUSH1 0xA9 SHL PUSH1 0x44 DUP3 ADD MSTORE PUSH1 0x64 SWAP1 REVERT JUMPDEST DUP6 DUP1 REVERT JUMPDEST PUSH1 0x4 CALLDATALOAD SWAP1 PUSH1 0x1 PUSH1 0x1 PUSH1 0xA0 SHL SUB DUP3 AND DUP3 SUB PUSH2 0x2B9 JUMPI JUMP JUMPDEST PUSH1 0x0 DUP1 REVERT JUMPDEST PUSH1 0x40 MLOAD SWAP1 PUSH1 0x40 DUP3 ADD DUP3 DUP2 LT PUSH8 0xFFFFFFFFFFFFFFFF DUP3 GT OR PUSH2 0x2DE JUMPI PUSH1 0x40 MSTORE JUMP JUMPDEST PUSH4 0x4E487B71 PUSH1 0xE0 SHL PUSH1 0x0 MSTORE PUSH1 0x41 PUSH1 0x4 MSTORE PUSH1 0x24 PUSH1 0x0 REVERT INVALID LOG2 PUSH5 0x6970667358 0x22 SLT KECCAK256 MULMOD JUMPDEST 0xB9 JUMPI PUSH23 0xA7CF761D9574C4D97DACB1E47EC68D089ECDFB5650FC 0x4B PUSH7 0x317B64736F6C63 NUMBER STOP ADDMOD XOR STOP CALLER "},"methodIdentifiers":{"getScore(address)":"d47875d0","scores(address)":"76dd110f","setScore(address,uint16)":"28dd9b39","updater()":"df034cd0"}}}}}