{"src/core/HarvestChainEscrowAI.sol":{"HarvestChainEscrowAI":{"abi":[{"inputs":[{"internalType":"contract IAIPriceOracle","name":"_aiOracle","type":"address"},{"internalType":"contract IDeliveryOracle","name":"_deliveryOracle","type":"address"},{"internalType":"contract ISSIRegistry","name":"_ssi","type":"address"},{"internalType":"contract ICreditScoreOracle","name":"_credit","type":"address"},{"internalType":"address","name":"_feeReceiver","type":"address"},{"internalType":"uint256","name":"_protocolFeeBps","type":"uint256"}],"stateMutability":"nonpayable","type":"constructor"},{"inputs":[{"internalType":"enum HarvestChainEscrowAI.State","name":"s","type":"uint8"}],"name":"BadState","type":"error"},{"inputs":[],"name":"NotBuyer","type":"error"},{"inputs":[],"name":"NotSeller","type":"error"},{"inputs":[],"name":"PastDeadline","type":"error"},{"anonymous":false,"inputs":[{"indexed":true,"internalType":"uint256","name":"id","type":"uint256"},{"indexed":false,"internalType":"uint256","name":"amount","type":"uint256"},{"indexed":false,"internalType":"uint256","name":"totalFunded","type":"uint256"}],"name":"BuyerFunded","type":"event"},{"anonymous":false,"inputs":[{"indexed":true,"internalType":"uint256","name":"id","type":"uint256"},{"indexed":false,"internalType":"uint256","name":"forfeitedToSeller","type":"uint256"},{"indexed":false,"internalType":"uint256","name":"refundedToBuyer","type":"uint256"}],"name":"BuyerSurrendered","type":"event"},{"anonymous":false,"inputs":[{"indexed":true,"internalType":"uint256","name":"id","type":"uint256"}],"name":"Cancelled","type":"event"},{"anonymous":false,"inputs":[{"indexed":true,"internalType":"uint256","name":"id","type":"uint256"}],"name":"Delivered","type":"event"},{"anonymous":false,"inputs":[{"indexed":true,"internalType":"uint256","name":"id","type":"uint256"},{"indexed":true,"internalType":"address","name":"seller","type":"address"},{"indexed":false,"internalType":"uint256","name":"unitPrice","type":"uint256"},{"indexed":false,"internalType":"uint256","name":"aiFloorPrice","type":"uint256"},{"indexed":false,"internalType":"uint256","name":"sellerBond","type":"uint256"}],"name":"OrderAccepted","type":"event"},{"anonymous":false,"inputs":[{"indexed":true,"internalType":"uint256","name":"id","type":"uint256"},{"indexed":true,"internalType":"address","name":"buyer","type":"address"},{"indexed":false,"internalType":"bytes32","name":"marketKey","type":"bytes32"},{"indexed":false,"internalType":"uint256","name":"qty","type":"uint256"},{"indexed":false,"internalType":"uint256","name":"maxUnitPrice","type":"uint256"},{"indexed":false,"internalType":"uint256","name":"depositBps","type":"uint256"},{"indexed":false,"internalType":"uint256","name":"forfeitBps","type":"uint256"},{"indexed":false,"internalType":"uint256","name":"maxDiscountBps","type":"uint256"}],"name":"OrderCreated","type":"event"},{"anonymous":false,"inputs":[{"indexed":true,"internalType":"uint256","name":"id","type":"uint256"},{"indexed":false,"internalType":"uint256","name":"amount","type":"uint256"}],"name":"SellerBondFunded","type":"event"},{"anonymous":false,"inputs":[{"indexed":true,"internalType":"uint256","name":"id","type":"uint256"},{"indexed":false,"internalType":"address","name":"seller","type":"address"},{"indexed":false,"internalType":"uint256","name":"sellerPayout","type":"uint256"},{"indexed":false,"internalType":"uint256","name":"protocolFee","type":"uint256"},{"indexed":false,"internalType":"uint256","name":"buyerRefund","type":"uint256"}],"name":"Settled","type":"event"},{"inputs":[],"name":"ROLE_COOP_MEMBER","outputs":[{"internalType":"bytes32","name":"","type":"bytes32"}],"stateMutability":"view","type":"function"},{"inputs":[{"internalType":"uint256","name":"id","type":"uint256"},{"internalType":"uint256","name":"unitPrice","type":"uint256"},{"internalType":"uint256","name":"sellerBond","type":"uint256"}],"name":"acceptOrder","outputs":[],"stateMutability":"nonpayable","type":"function"},{"inputs":[],"name":"aiOracle","outputs":[{"internalType":"contract IAIPriceOracle","name":"","type":"address"}],"stateMutability":"view","type":"function"},{"inputs":[{"internalType":"contract IERC20","name":"token","type":"address"},{"internalType":"bytes32","name":"marketKey","type":"bytes32"},{"internalType":"uint256","name":"quantity","type":"uint256"},{"internalType":"uint256","name":"maxUnitPrice","type":"uint256"},{"internalType":"uint256","name":"depositBps","type":"uint256"},{"internalType":"uint256","name":"forfeitBps","type":"uint256"},{"internalType":"uint256","name":"maxDiscountBps","type":"uint256"},{"internalType":"uint64","name":"acceptBy","type":"uint64"},{"internalType":"uint64","name":"deliverBy","type":"uint64"},{"internalType":"uint256","name":"initialDepositAmount","type":"uint256"}],"name":"createOrder","outputs":[{"internalType":"uint256","name":"id","type":"uint256"}],"stateMutability":"nonpayable","type":"function"},{"inputs":[],"name":"credit","outputs":[{"internalType":"contract ICreditScoreOracle","name":"","type":"address"}],"stateMutability":"view","type":"function"},{"inputs":[],"name":"deliveryOracle","outputs":[{"internalType":"contract IDeliveryOracle","name":"","type":"address"}],"stateMutability":"view","type":"function"},{"inputs":[],"name":"feeReceiver","outputs":[{"internalType":"address","name":"","type":"address"}],"stateMutability":"view","type":"function"},{"inputs":[{"internalType":"uint256","name":"id","type":"uint256"},{"internalType":"uint256","name":"amount","type":"uint256"}],"name":"fundRemainder","outputs":[],"stateMutability":"nonpayable","type":"function"},{"inputs":[{"internalType":"uint256","name":"id","type":"uint256"}],"name":"markDelivered","outputs":[],"stateMutability":"nonpayable","type":"function"},{"inputs":[],"name":"nextOrderId","outputs":[{"internalType":"uint256","name":"","type":"uint256"}],"stateMutability":"view","type":"function"},{"inputs":[{"internalType":"uint256","name":"","type":"uint256"}],"name":"orders","outputs":[{"internalType":"address","name":"buyer","type":"address"},{"internalType":"address","name":"seller","type":"address"},{"internalType":"contract IERC20","name":"token","type":"address"},{"internalType":"bytes32","name":"marketKey","type":"bytes32"},{"internalType":"uint256","name":"quantity","type":"uint256"},{"internalType":"uint256","name":"unitPrice","type":"uint256"},{"internalType":"uint256","name":"notional","type":"uint256"},{"internalType":"uint256","name":"aiFloorPrice","type":"uint256"},{"internalType":"uint256","name":"depositBps","type":"uint256"},{"internalType":"uint256","name":"forfeitBps","type":"uint256"},{"internalType":"uint256","name":"maxDiscountBps","type":"uint256"},{"internalType":"uint256","name":"sellerBond","type":"uint256"},{"internalType":"uint256","name":"buyerEscrowed","type":"uint256"},{"internalType":"uint256","name":"sellerEscrowed","type":"uint256"},{"internalType":"enum HarvestChainEscrowAI.State","name":"state","type":"uint8"},{"internalType":"uint64","name":"createdAt","type":"uint64"},{"internalType":"uint64","name":"acceptBy","type":"uint64"},{"internalType":"uint64","name":"deliverBy","type":"uint64"}],"stateMutability":"view","type":"function"},{"inputs":[],"name":"protocolFeeBps","outputs":[{"internalType":"uint256","name":"","type":"uint256"}],"stateMutability":"view","type":"function"},{"inputs":[{"internalType":"uint256","name":"id","type":"uint256"}],"name":"settle","outputs":[],"stateMutability":"nonpayable","type":"function"},{"inputs":[],"name":"ssi","outputs":[{"internalType":"contract ISSIRegistry","name":"","type":"address"}],"stateMutability":"view","type":"function"},{"inputs":[{"internalType":"uint256","name":"id","type":"uint256"}],"name":"surrender","outputs":[],"stateMutability":"nonpayable","type":"function"}],"evm":{"bytecode":{"linkReferences":{},"object":"6080346100e857601f61150d38819003918201601f19168301916001600160401b038311848410176100ed5780849260c0946040528339810103126100e85780516001600160a01b0390818116908190036100e8576020830151928284168094036100e85760408101518381168091036100e8576060820151918483168093036100e85760808101519485168095036100e85760a0015194600160005560018060a01b0319938460015416176001558360025416176002558260035416176003558160045416176004556005541617600555600655600160075560405161140990816101048239f35b600080fd5b634e487b7160e01b600052604160045260246000fdfe608080604052600436101561001357600080fd5b60003560e01c9081632a58b330146111685750806331b221cd1461113f57806335659fb814611121578063539bcd711461102557806353fd049614610fea578063854ffeee14610c435780638df8280014610a5d578063a06d083c14610a34578063a85c38ef14610912578063b3f00674146108e9578063b8917b3b146108c0578063c6e0226014610461578063ca9588b914610438578063eb826a5f146102b15763fd61d10b146100c457600080fd5b346102ac5760203660031901126102ac576004356100e6600160005414611190565b6002600090815581815260086020526040902080546001600160a01b0391908216330361029a57600e810180549060ff82169160078310156102845785947ff149378791e2c09b0bd5eb438144f87dc27e6bfd440f027f980ad4b89bc43e4e9461015e85600260409714908115610279575b506111c9565b61017a610186600683015461271092839160088601549061125e565b0460098401549061125e565b0493600c8201549485811160001461026c575060066101a58680611251565b9460ff19161790558315158061025d575b610240575b82610226575b600d8101549081610207575b50505082519182526020820152a27fc41d93b8bfbf9fd7cf5bfe271fd649ab6a6fec0ea101c23b82a2a28eca2533a9600080a26001600055005b82600161021e94600284015416920154169061132b565b3880806101cd565b61023b8383600284015416848454169061132b565b6101c1565b6102588483600284015416846001850154169061132b565b6101bb565b508160018201541615156101b6565b6101a56006918097611251565b600391501438610158565b634e487b7160e01b600052602160045260246000fd5b60405163239700bf60e11b8152600490fd5b600080fd5b346102ac576020806003193601126102ac57600435908160005260088152600e6040600020019081549060ff82166007811015610284576003036104075767ffffffffffffffff8260881c1680151590816103fd575b506103eb57600254604051636e6db4e960e11b815260048101869052908290829060249082906001600160a01b03165afa9081156103df576000916103b2575b501561037e575060ff191660041790557ffcc296b8bdd64e3f1d1faadef50cb2d6550f645316330fe57cb1dd7e0612ead0600080a2005b6064906040519062461bcd60e51b82526004820152600d60248201526c1b9bdd0819195b1a5d995c9959609a1b6044820152fd5b6103d29150823d84116103d8575b6103ca8183611201565b810190611239565b85610347565b503d6103c0565b6040513d6000823e3d90fd5b6040516381efbd8d60e01b8152600490fd5b9050421185610307565b6064906040519062461bcd60e51b82526004820152600a6024820152691b9bdd08199d5b99195960b21b6044820152fd5b346102ac5760003660031901126102ac576003546040516001600160a01b039091168152602090f35b346102ac576101403660031901126102ac576004356001600160a01b03811690036102ac5767ffffffffffffffff60e4351660e435036102ac5767ffffffffffffffff610104351661010435036102ac576104c0600160005414611190565b60026000556044351515806108b5575b1561088457608435151580610876575b156108435761138860a4351161080b576107d060c435116107d257600754600019811461072357600181016007558060005260086020526040600020906bffffffffffffffffffffffff60a01b3381845416178355600283019060018060a01b03600435169082541617905560243560038301556044356004830155606435600583015561057260643560443561125e565b6006830155608435600883015560a435600983015560c435600a830155600e82016001815468ffffffffffffffff004260081b169066ffffffffffffff60c81b161770ffffffffffffffff00000000000000000060e43560481b161767ffffffffffffffff60881b6101043560881b16171790556024604060018060a01b0360045416815192838092630d47875d60e41b82523360048301525afa80156103df5760009061077d575b61ffff91501661032081101580610770575b1561073957506084356103e71981019081116107235760088301555b61271061065f600684015460088501549061125e565b0461012435036106eb57600860209261067f610124353033600435611271565b61012435600c8201550154604051906024358252604435848301526064356040830152606082015260a435608082015260c43560a0820152817f732245d39ce385956933fef4ea2005dc25a945f4380485f97d56ae7bedb9bc3c60c03393a36001600055604051908152f35b60405162461bcd60e51b815260206004820152601060248201526f0c8cae0dee6d2e840dad2e6dac2e8c6d60831b6044820152606490fd5b634e487b7160e01b600052601160045260246000fd5b6102bc111580610763575b15610649576084356101f3198101908111610723576008830155610649565b506109c460843511610744565b506107d06084351161062d565b506040813d6040116107ca575b8161079760409383611201565b810103126102ac5780519061ffff821682036102ac576020015167ffffffffffffffff8116036102ac5761ffff9061061b565b3d915061078a565b60405162461bcd60e51b81526020600482015260116024820152700c8d2e6c6deeadce840e8dede40d0d2ced607b1b6044820152606490fd5b60405162461bcd60e51b815260206004820152601060248201526f0ccdee4cccad2e840e8dede40d0d2ced60831b6044820152606490fd5b60405162461bcd60e51b815260206004820152600b60248201526a1898590819195c1bdcda5d60aa1b6044820152606490fd5b5061271060843511156104e0565b60405162461bcd60e51b8152602060048201526009602482015268626164207465726d7360b81b6044820152606490fd5b5060643515156104d0565b346102ac5760003660031901126102ac576002546040516001600160a01b039091168152602090f35b346102ac5760003660031901126102ac576005546040516001600160a01b039091168152602090f35b346102ac5760203660031901126102ac5760043560005260086020526040600020600160a01b60019003908181541690826001820154169260028201541660038201546004830154600584015460068501546007860154600887015491600988015493600a89015495600b8a015497600c8b015499600d8c01549b600e01549c6040519e8f91825260208201526040015260608d015260808c015260a08b015260c08a015260e08901526101008801526101208701526101408601526101608501526101808401526101a08301526101c0820160ff8216906109f391611183565b8060081c67ffffffffffffffff166101e08301528060481c67ffffffffffffffff1661020083015260881c67ffffffffffffffff1661022082015261024090f35b346102ac5760003660031901126102ac576004546040516001600160a01b039091168152602090f35b346102ac5760203660031901126102ac57600435610a7f600160005414611190565b60026000558060005260086020526040600020600e8101805460ff81166007811015610284576004610ab191146111c9565b600c8301928354600682018054809210610c08577fb2790cfbb501cb5d139a6d2e6b8157f1e9fc7043f1354b6645d9accfa9d95582956080956006548015600014610bee57506005610b0560008096611251565b9660ff191617905582151580610bda575b610bb5575b60028401610b5760018060a01b03938483541693610b428960018a0196888854169061132b565b600d88015480610b9d575b5054905490611251565b80958482610b84575b50505050541692604051938452602084015260408301526060820152a26001600055005b80610b949454169154169061132b565b88848184610b60565b610baf9087865416888854169061132b565b8c610b4d565b6002840154600554610bd59185916001600160a01b03908116911661132b565b610b1b565b506005546001600160a01b03161515610b16565b610b05612710610c006005938861125e565b048096611251565b60405162461bcd60e51b8152602060048201526013602482015272696e73756666696369656e7420657363726f7760681b6044820152606490fd5b346102ac576060806003193601126102ac57600435906024918235916044803590610c72600160005414611190565b6002600055836000526020600881526040600020600e81019081549160ff83166007811015610fd55760018103610fb6575067ffffffffffffffff8360481c168015159081610fac575b506103eb5788151580610f9e575b15610f6a5760035460405163de11892b60e01b81523360048201527f5b553d59dc30e2ce5ac2082a51edb1c07fdd592ce74fe731cd380c27e4e79922818d01526001600160a01b039491869082908990829089165afa9081156103df57600091610f4d575b5015610f1b578360015416958860038501548d604051809a819363d15d258760e01b835260048301525afa9687156103df57600097610eec575b508615610eb357600a840154612710908103818111610e9e57610d8c908961125e565b048b10610e6b57507f5a6ace7e08652681417a3b2cdf1a091d68b8bb347f8215164379d8e14e191af598999a5090600283928760078a979601558c6005850155610dda8d600486015461125e565b60068501556001840180546001600160a01b0319163317905560ff191617905582610e1b575b50505060405196875286015260408501523393a36001600055005b610e3783600d9381600b85015560028401541630903390611271565b0155857f03e157917fabbe1d418840c96b6bcc52532d3126409c286c11a4b2713d5afc0282604051868152a2828880610e00565b856d3ab73232b91020a490333637b7b960911b606492600e8f6040519462461bcd60e51b86526004860152840152820152fd5b8d634e487b7160e01b60005260116004526000fd5b8573414920707269636520756e617661696c61626c6560601b60649260148f6040519462461bcd60e51b86526004860152840152820152fd5b9096508881813d8311610f14575b610f048183611201565b810103126102ac5751958c610d69565b503d610efa565b60405162461bcd60e51b815260048101869052600c818d01526b14d4d2481c995c5d5a5c995960a21b81880152606490fd5b610f649150863d88116103d8576103ca8183611201565b8c610d2f565b60405162461bcd60e51b815260048101859052600e818c01526d0e0e4d2c6ca40e8dede40d0d2ced60931b81870152606490fd5b506005820154891115610cca565b905042118b610cbc565b6040516373f629b760e11b81528b91610fd3906004830190611183565bfd5b8a634e487b7160e01b60005260216004526000fd5b346102ac5760003660031901126102ac5760206040517f5b553d59dc30e2ce5ac2082a51edb1c07fdd592ce74fe731cd380c27e4e799228152f35b346102ac5760403660031901126102ac5760043560243561104a600160005414611190565b6002600090815582815260086020526040902080546001600160a01b0392908316330361029a57600e82019260ff8454166007811015610284576110ad9161109e82600286941490811561111657506111c9565b60028501541630903390611271565b600c820192835490828201809211610723576006604094837fe15caabf05531988dfbf1d9e03e2fbe08b9e6b6b21be88cc84dc434b14f3144e97550154821015611105575b5082519182526020820152a26001600055005b805460ff19166003179055856110f2565b600391501489610158565b346102ac5760003660031901126102ac576020600654604051908152f35b346102ac5760003660031901126102ac576001546040516001600160a01b039091168152602090f35b346102ac5760003660031901126102ac576020906007548152f35b9060078210156102845752565b1561119757565b60405162461bcd60e51b815260206004820152600a6024820152695245454e5452414e435960b01b6044820152606490fd5b156111d057565b60405162461bcd60e51b815260206004820152600960248201526862616420737461746560b81b6044820152606490fd5b90601f8019910116810190811067ffffffffffffffff82111761122357604052565b634e487b7160e01b600052604160045260246000fd5b908160209103126102ac575180151581036102ac5790565b9190820391821161072357565b8181029291811591840414171561072357565b6040516323b872dd60e01b81526001600160a01b03928316600482015292821660248401526044830193909352909160209183916064918391600091165af19081156103df5760009161130c575b50156112c757565b60405162461bcd60e51b815260206004820152601960248201527f4552433230207472616e7366657246726f6d206661696c6564000000000000006044820152606490fd5b611325915060203d6020116103d8576103ca8183611201565b386112bf565b60405163a9059cbb60e01b81526001600160a01b039283166004820152602481019390935260209183916044918391600091165af19081156103df576000916113b4575b501561137757565b60405162461bcd60e51b8152602060048201526015602482015274115490cc8c081d1c985b9cd9995c8819985a5b1959605a1b6044820152606490fd5b6113cd915060203d6020116103d8576103ca8183611201565b3861136f56fea26469706673582212203b6c79cacf6d538becdc1182dcb3364c80e79e5139618362580f2bc997ab177664736f6c63430008180033","opcodes":"PUSH1 0x80 CALLVALUE PUSH2 0xE8 JUMPI PUSH1 0x1F PUSH2 0x150D CODESIZE DUP2 SWAP1 SUB SWAP2 DUP3 ADD PUSH1 0x1F NOT AND DUP4 ADD SWAP2 PUSH1 0x1 PUSH1 0x1 PUSH1 0x40 SHL SUB DUP4 GT DUP5 DUP5 LT OR PUSH2 0xED JUMPI DUP1 DUP5 SWAP3 PUSH1 0xC0 SWAP5 PUSH1 0x40 MSTORE DUP4 CODECOPY DUP2 ADD SUB SLT PUSH2 0xE8 JUMPI DUP1 MLOAD PUSH1 0x1 PUSH1 0x1 PUSH1 0xA0 SHL SUB SWAP1 DUP2 DUP2 AND SWAP1 DUP2 SWAP1 SUB PUSH2 0xE8 JUMPI PUSH1 0x20 DUP4 ADD MLOAD SWAP3 DUP3 DUP5 AND DUP1 SWAP5 SUB PUSH2 0xE8 JUMPI PUSH1 0x40 DUP2 ADD MLOAD DUP4 DUP2 AND DUP1 SWAP2 SUB PUSH2 0xE8 JUMPI PUSH1 0x60 DUP3 ADD MLOAD SWAP2 DUP5 DUP4 AND DUP1 SWAP4 SUB PUSH2 0xE8 JUMPI PUSH1 0x80 DUP2 ADD MLOAD SWAP5 DUP6 AND DUP1 SWAP6 SUB PUSH2 0xE8 JUMPI PUSH1 0xA0 ADD MLOAD SWAP5 PUSH1 0x1 PUSH1 0x0 SSTORE PUSH1 0x1 DUP1 PUSH1 0xA0 SHL SUB NOT SWAP4 DUP5 PUSH1 0x1 SLOAD AND OR PUSH1 0x1 SSTORE DUP4 PUSH1 0x2 SLOAD AND OR PUSH1 0x2 SSTORE DUP3 PUSH1 0x3 SLOAD AND OR PUSH1 0x3 SSTORE DUP2 PUSH1 0x4 SLOAD AND OR PUSH1 0x4 SSTORE PUSH1 0x5 SLOAD AND OR PUSH1 0x5 SSTORE PUSH1 0x6 SSTORE PUSH1 0x1 PUSH1 0x7 SSTORE PUSH1 0x40 MLOAD PUSH2 0x1409 SWAP1 DUP2 PUSH2 0x104 DUP3 CODECOPY RETURN JUMPDEST PUSH1 0x0 DUP1 REVERT JUMPDEST PUSH4 0x4E487B71 PUSH1 0xE0 SHL PUSH1 0x0 MSTORE PUSH1 0x41 PUSH1 0x4 MSTORE PUSH1 0x24 PUSH1 0x0 REVERT INVALID PUSH1 0x80 DUP1 PUSH1 0x40 MSTORE PUSH1 0x4 CALLDATASIZE LT ISZERO PUSH2 0x13 JUMPI PUSH1 0x0 DUP1 REVERT JUMPDEST PUSH1 0x0 CALLDATALOAD PUSH1 0xE0 SHR SWAP1 DUP2 PUSH4 0x2A58B330 EQ PUSH2 0x1168 JUMPI POP DUP1 PUSH4 0x31B221CD EQ PUSH2 0x113F JUMPI DUP1 PUSH4 0x35659FB8 EQ PUSH2 0x1121 JUMPI DUP1 PUSH4 0x539BCD71 EQ PUSH2 0x1025 JUMPI DUP1 PUSH4 0x53FD0496 EQ PUSH2 0xFEA JUMPI DUP1 PUSH4 0x854FFEEE EQ PUSH2 0xC43 JUMPI DUP1 PUSH4 0x8DF82800 EQ PUSH2 0xA5D JUMPI DUP1 PUSH4 0xA06D083C EQ PUSH2 0xA34 JUMPI DUP1 PUSH4 0xA85C38EF EQ PUSH2 0x912 JUMPI DUP1 PUSH4 0xB3F00674 EQ PUSH2 0x8E9 JUMPI DUP1 PUSH4 0xB8917B3B EQ PUSH2 0x8C0 JUMPI DUP1 PUSH4 0xC6E02260 EQ PUSH2 0x461 JUMPI DUP1 PUSH4 0xCA9588B9 EQ PUSH2 0x438 JUMPI DUP1 PUSH4 0xEB826A5F EQ PUSH2 0x2B1 JUMPI PUSH4 0xFD61D10B EQ PUSH2 0xC4 JUMPI PUSH1 0x0 DUP1 REVERT JUMPDEST CALLVALUE PUSH2 0x2AC JUMPI PUSH1 0x20 CALLDATASIZE PUSH1 0x3 NOT ADD SLT PUSH2 0x2AC JUMPI PUSH1 0x4 CALLDATALOAD PUSH2 0xE6 PUSH1 0x1 PUSH1 0x0 SLOAD EQ PUSH2 0x1190 JUMP JUMPDEST PUSH1 0x2 PUSH1 0x0 SWAP1 DUP2 SSTORE DUP2 DUP2 MSTORE PUSH1 0x8 PUSH1 0x20 MSTORE PUSH1 0x40 SWAP1 KECCAK256 DUP1 SLOAD PUSH1 0x1 PUSH1 0x1 PUSH1 0xA0 SHL SUB SWAP2 SWAP1 DUP3 AND CALLER SUB PUSH2 0x29A JUMPI PUSH1 0xE DUP2 ADD DUP1 SLOAD SWAP1 PUSH1 0xFF DUP3 AND SWAP2 PUSH1 0x7 DUP4 LT ISZERO PUSH2 0x284 JUMPI DUP6 SWAP5 PUSH32 0xF149378791E2C09B0BD5EB438144F87DC27E6BFD440F027F980AD4B89BC43E4E SWAP5 PUSH2 0x15E DUP6 PUSH1 0x2 PUSH1 0x40 SWAP8 EQ SWAP1 DUP2 ISZERO PUSH2 0x279 JUMPI JUMPDEST POP PUSH2 0x11C9 JUMP JUMPDEST PUSH2 0x17A PUSH2 0x186 PUSH1 0x6 DUP4 ADD SLOAD PUSH2 0x2710 SWAP3 DUP4 SWAP2 PUSH1 0x8 DUP7 ADD SLOAD SWAP1 PUSH2 0x125E JUMP JUMPDEST DIV PUSH1 0x9 DUP5 ADD SLOAD SWAP1 PUSH2 0x125E JUMP JUMPDEST DIV SWAP4 PUSH1 0xC DUP3 ADD SLOAD SWAP5 DUP6 DUP2 GT PUSH1 0x0 EQ PUSH2 0x26C JUMPI POP PUSH1 0x6 PUSH2 0x1A5 DUP7 DUP1 PUSH2 0x1251 JUMP JUMPDEST SWAP5 PUSH1 0xFF NOT AND OR SWAP1 SSTORE DUP4 ISZERO ISZERO DUP1 PUSH2 0x25D JUMPI JUMPDEST PUSH2 0x240 JUMPI JUMPDEST DUP3 PUSH2 0x226 JUMPI JUMPDEST PUSH1 0xD DUP2 ADD SLOAD SWAP1 DUP2 PUSH2 0x207 JUMPI JUMPDEST POP POP POP DUP3 MLOAD SWAP2 DUP3 MSTORE PUSH1 0x20 DUP3 ADD MSTORE LOG2 PUSH32 0xC41D93B8BFBF9FD7CF5BFE271FD649AB6A6FEC0EA101C23B82A2A28ECA2533A9 PUSH1 0x0 DUP1 LOG2 PUSH1 0x1 PUSH1 0x0 SSTORE STOP JUMPDEST DUP3 PUSH1 0x1 PUSH2 0x21E SWAP5 PUSH1 0x2 DUP5 ADD SLOAD AND SWAP3 ADD SLOAD AND SWAP1 PUSH2 0x132B JUMP JUMPDEST CODESIZE DUP1 DUP1 PUSH2 0x1CD JUMP JUMPDEST PUSH2 0x23B DUP4 DUP4 PUSH1 0x2 DUP5 ADD SLOAD AND DUP5 DUP5 SLOAD AND SWAP1 PUSH2 0x132B JUMP JUMPDEST PUSH2 0x1C1 JUMP JUMPDEST PUSH2 0x258 DUP5 DUP4 PUSH1 0x2 DUP5 ADD SLOAD AND DUP5 PUSH1 0x1 DUP6 ADD SLOAD AND SWAP1 PUSH2 0x132B JUMP JUMPDEST PUSH2 0x1BB JUMP JUMPDEST POP DUP2 PUSH1 0x1 DUP3 ADD SLOAD AND ISZERO ISZERO PUSH2 0x1B6 JUMP JUMPDEST PUSH2 0x1A5 PUSH1 0x6 SWAP2 DUP1 SWAP8 PUSH2 0x1251 JUMP JUMPDEST PUSH1 0x3 SWAP2 POP EQ CODESIZE PUSH2 0x158 JUMP JUMPDEST PUSH4 0x4E487B71 PUSH1 0xE0 SHL PUSH1 0x0 MSTORE PUSH1 0x21 PUSH1 0x4 MSTORE PUSH1 0x24 PUSH1 0x0 REVERT JUMPDEST PUSH1 0x40 MLOAD PUSH4 0x239700BF PUSH1 0xE1 SHL DUP2 MSTORE PUSH1 0x4 SWAP1 REVERT JUMPDEST PUSH1 0x0 DUP1 REVERT JUMPDEST CALLVALUE PUSH2 0x2AC JUMPI PUSH1 0x20 DUP1 PUSH1 0x3 NOT CALLDATASIZE ADD SLT PUSH2 0x2AC JUMPI PUSH1 0x4 CALLDATALOAD SWAP1 DUP2 PUSH1 0x0 MSTORE PUSH1 0x8 DUP2 MSTORE PUSH1 0xE PUSH1 0x40 PUSH1 0x0 KECCAK256 ADD SWAP1 DUP2 SLOAD SWAP1 PUSH1 0xFF DUP3 AND PUSH1 0x7 DUP2 LT ISZERO PUSH2 0x284 JUMPI PUSH1 0x3 SUB PUSH2 0x407 JUMPI PUSH8 0xFFFFFFFFFFFFFFFF DUP3 PUSH1 0x88 SHR AND DUP1 ISZERO ISZERO SWAP1 DUP2 PUSH2 0x3FD JUMPI JUMPDEST POP PUSH2 0x3EB JUMPI PUSH1 0x2 SLOAD PUSH1 0x40 MLOAD PUSH4 0x6E6DB4E9 PUSH1 0xE1 SHL DUP2 MSTORE PUSH1 0x4 DUP2 ADD DUP7 SWAP1 MSTORE SWAP1 DUP3 SWAP1 DUP3 SWAP1 PUSH1 0x24 SWAP1 DUP3 SWAP1 PUSH1 0x1 PUSH1 0x1 PUSH1 0xA0 SHL SUB AND GAS STATICCALL SWAP1 DUP2 ISZERO PUSH2 0x3DF JUMPI PUSH1 0x0 SWAP2 PUSH2 0x3B2 JUMPI JUMPDEST POP ISZERO PUSH2 0x37E JUMPI POP PUSH1 0xFF NOT AND PUSH1 0x4 OR SWAP1 SSTORE PUSH32 0xFCC296B8BDD64E3F1D1FAADEF50CB2D6550F645316330FE57CB1DD7E0612EAD0 PUSH1 0x0 DUP1 LOG2 STOP JUMPDEST PUSH1 0x64 SWAP1 PUSH1 0x40 MLOAD SWAP1 PUSH3 0x461BCD PUSH1 0xE5 SHL DUP3 MSTORE PUSH1 0x4 DUP3 ADD MSTORE PUSH1 0xD PUSH1 0x24 DUP3 ADD MSTORE PUSH13 0x1B9BDD0819195B1A5D995C9959 PUSH1 0x9A SHL PUSH1 0x44 DUP3 ADD MSTORE REVERT JUMPDEST PUSH2 0x3D2 SWAP2 POP DUP3 RETURNDATASIZE DUP5 GT PUSH2 0x3D8 JUMPI JUMPDEST PUSH2 0x3CA DUP2 DUP4 PUSH2 0x1201 JUMP JUMPDEST DUP2 ADD SWAP1 PUSH2 0x1239 JUMP JUMPDEST DUP6 PUSH2 0x347 JUMP JUMPDEST POP RETURNDATASIZE PUSH2 0x3C0 JUMP JUMPDEST PUSH1 0x40 MLOAD RETURNDATASIZE PUSH1 0x0 DUP3 RETURNDATACOPY RETURNDATASIZE SWAP1 REVERT JUMPDEST PUSH1 0x40 MLOAD PUSH4 0x81EFBD8D PUSH1 0xE0 SHL DUP2 MSTORE PUSH1 0x4 SWAP1 REVERT JUMPDEST SWAP1 POP TIMESTAMP GT DUP6 PUSH2 0x307 JUMP JUMPDEST PUSH1 0x64 SWAP1 PUSH1 0x40 MLOAD SWAP1 PUSH3 0x461BCD PUSH1 0xE5 SHL DUP3 MSTORE PUSH1 0x4 DUP3 ADD MSTORE PUSH1 0xA PUSH1 0x24 DUP3 ADD MSTORE PUSH10 0x1B9BDD08199D5B991959 PUSH1 0xB2 SHL PUSH1 0x44 DUP3 ADD MSTORE REVERT JUMPDEST CALLVALUE PUSH2 0x2AC JUMPI PUSH1 0x0 CALLDATASIZE PUSH1 0x3 NOT ADD SLT PUSH2 0x2AC JUMPI PUSH1 0x3 SLOAD PUSH1 0x40 MLOAD PUSH1 0x1 PUSH1 0x1 PUSH1 0xA0 SHL SUB SWAP1 SWAP2 AND DUP2 MSTORE PUSH1 0x20 SWAP1 RETURN JUMPDEST CALLVALUE PUSH2 0x2AC JUMPI PUSH2 0x140 CALLDATASIZE PUSH1 0x3 NOT ADD SLT PUSH2 0x2AC JUMPI PUSH1 0x4 CALLDATALOAD PUSH1 0x1 PUSH1 0x1 PUSH1 0xA0 SHL SUB DUP2 AND SWAP1 SUB PUSH2 0x2AC JUMPI PUSH8 0xFFFFFFFFFFFFFFFF PUSH1 0xE4 CALLDATALOAD AND PUSH1 0xE4 CALLDATALOAD SUB PUSH2 0x2AC JUMPI PUSH8 0xFFFFFFFFFFFFFFFF PUSH2 0x104 CALLDATALOAD AND PUSH2 0x104 CALLDATALOAD SUB PUSH2 0x2AC JUMPI PUSH2 0x4C0 PUSH1 0x1 PUSH1 0x0 SLOAD EQ PUSH2 0x1190 JUMP JUMPDEST PUSH1 0x2 PUSH1 0x0 SSTORE PUSH1 0x44 CALLDATALOAD ISZERO ISZERO DUP1 PUSH2 0x8B5 JUMPI JUMPDEST ISZERO PUSH2 0x884 JUMPI PUSH1 0x84 CALLDATALOAD ISZERO ISZERO DUP1 PUSH2 0x876 JUMPI JUMPDEST ISZERO PUSH2 0x843 JUMPI PUSH2 0x1388 PUSH1 0xA4 CALLDATALOAD GT PUSH2 0x80B JUMPI PUSH2 0x7D0 PUSH1 0xC4 CALLDATALOAD GT PUSH2 0x7D2 JUMPI PUSH1 0x7 SLOAD PUSH1 0x0 NOT DUP2 EQ PUSH2 0x723 JUMPI PUSH1 0x1 DUP2 ADD PUSH1 0x7 SSTORE DUP1 PUSH1 0x0 MSTORE PUSH1 0x8 PUSH1 0x20 MSTORE PUSH1 0x40 PUSH1 0x0 KECCAK256 SWAP1 PUSH12 0xFFFFFFFFFFFFFFFFFFFFFFFF PUSH1 0xA0 SHL CALLER DUP2 DUP5 SLOAD AND OR DUP4 SSTORE PUSH1 0x2 DUP4 ADD SWAP1 PUSH1 0x1 DUP1 PUSH1 0xA0 SHL SUB PUSH1 0x4 CALLDATALOAD AND SWAP1 DUP3 SLOAD AND OR SWAP1 SSTORE PUSH1 0x24 CALLDATALOAD PUSH1 0x3 DUP4 ADD SSTORE PUSH1 0x44 CALLDATALOAD PUSH1 0x4 DUP4 ADD SSTORE PUSH1 0x64 CALLDATALOAD PUSH1 0x5 DUP4 ADD SSTORE PUSH2 0x572 PUSH1 0x64 CALLDATALOAD PUSH1 0x44 CALLDATALOAD PUSH2 0x125E JUMP JUMPDEST PUSH1 0x6 DUP4 ADD SSTORE PUSH1 0x84 CALLDATALOAD PUSH1 0x8 DUP4 ADD SSTORE PUSH1 0xA4 CALLDATALOAD PUSH1 0x9 DUP4 ADD SSTORE PUSH1 0xC4 CALLDATALOAD PUSH1 0xA DUP4 ADD SSTORE PUSH1 0xE DUP3 ADD PUSH1 0x1 DUP2 SLOAD PUSH9 0xFFFFFFFFFFFFFFFF00 TIMESTAMP PUSH1 0x8 SHL AND SWAP1 PUSH7 0xFFFFFFFFFFFFFF PUSH1 0xC8 SHL AND OR PUSH17 0xFFFFFFFFFFFFFFFF000000000000000000 PUSH1 0xE4 CALLDATALOAD PUSH1 0x48 SHL AND OR PUSH8 0xFFFFFFFFFFFFFFFF PUSH1 0x88 SHL PUSH2 0x104 CALLDATALOAD PUSH1 0x88 SHL AND OR OR SWAP1 SSTORE PUSH1 0x24 PUSH1 0x40 PUSH1 0x1 DUP1 PUSH1 0xA0 SHL SUB PUSH1 0x4 SLOAD AND DUP2 MLOAD SWAP3 DUP4 DUP1 SWAP3 PUSH4 0xD47875D PUSH1 0xE4 SHL DUP3 MSTORE CALLER PUSH1 0x4 DUP4 ADD MSTORE GAS STATICCALL DUP1 ISZERO PUSH2 0x3DF JUMPI PUSH1 0x0 SWAP1 PUSH2 0x77D JUMPI JUMPDEST PUSH2 0xFFFF SWAP2 POP AND PUSH2 0x320 DUP2 LT ISZERO DUP1 PUSH2 0x770 JUMPI JUMPDEST ISZERO PUSH2 0x739 JUMPI POP PUSH1 0x84 CALLDATALOAD PUSH2 0x3E7 NOT DUP2 ADD SWAP1 DUP2 GT PUSH2 0x723 JUMPI PUSH1 0x8 DUP4 ADD SSTORE JUMPDEST PUSH2 0x2710 PUSH2 0x65F PUSH1 0x6 DUP5 ADD SLOAD PUSH1 0x8 DUP6 ADD SLOAD SWAP1 PUSH2 0x125E JUMP JUMPDEST DIV PUSH2 0x124 CALLDATALOAD SUB PUSH2 0x6EB JUMPI PUSH1 0x8 PUSH1 0x20 SWAP3 PUSH2 0x67F PUSH2 0x124 CALLDATALOAD ADDRESS CALLER PUSH1 0x4 CALLDATALOAD PUSH2 0x1271 JUMP JUMPDEST PUSH2 0x124 CALLDATALOAD PUSH1 0xC DUP3 ADD SSTORE ADD SLOAD PUSH1 0x40 MLOAD SWAP1 PUSH1 0x24 CALLDATALOAD DUP3 MSTORE PUSH1 0x44 CALLDATALOAD DUP5 DUP4 ADD MSTORE PUSH1 0x64 CALLDATALOAD PUSH1 0x40 DUP4 ADD MSTORE PUSH1 0x60 DUP3 ADD MSTORE PUSH1 0xA4 CALLDATALOAD PUSH1 0x80 DUP3 ADD MSTORE PUSH1 0xC4 CALLDATALOAD PUSH1 0xA0 DUP3 ADD MSTORE DUP2 PUSH32 0x732245D39CE385956933FEF4EA2005DC25A945F4380485F97D56AE7BEDB9BC3C PUSH1 0xC0 CALLER SWAP4 LOG3 PUSH1 0x1 PUSH1 0x0 SSTORE PUSH1 0x40 MLOAD SWAP1 DUP2 MSTORE RETURN JUMPDEST PUSH1 0x40 MLOAD PUSH3 0x461BCD PUSH1 0xE5 SHL DUP2 MSTORE PUSH1 0x20 PUSH1 0x4 DUP3 ADD MSTORE PUSH1 0x10 PUSH1 0x24 DUP3 ADD MSTORE PUSH16 0xC8CAE0DEE6D2E840DAD2E6DAC2E8C6D PUSH1 0x83 SHL PUSH1 0x44 DUP3 ADD MSTORE PUSH1 0x64 SWAP1 REVERT JUMPDEST PUSH4 0x4E487B71 PUSH1 0xE0 SHL PUSH1 0x0 MSTORE PUSH1 0x11 PUSH1 0x4 MSTORE PUSH1 0x24 PUSH1 0x0 REVERT JUMPDEST PUSH2 0x2BC GT ISZERO DUP1 PUSH2 0x763 JUMPI JUMPDEST ISZERO PUSH2 0x649 JUMPI PUSH1 0x84 CALLDATALOAD PUSH2 0x1F3 NOT DUP2 ADD SWAP1 DUP2 GT PUSH2 0x723 JUMPI PUSH1 0x8 DUP4 ADD SSTORE PUSH2 0x649 JUMP JUMPDEST POP PUSH2 0x9C4 PUSH1 0x84 CALLDATALOAD GT PUSH2 0x744 JUMP JUMPDEST POP PUSH2 0x7D0 PUSH1 0x84 CALLDATALOAD GT PUSH2 0x62D JUMP JUMPDEST POP PUSH1 0x40 DUP2 RETURNDATASIZE PUSH1 0x40 GT PUSH2 0x7CA JUMPI JUMPDEST DUP2 PUSH2 0x797 PUSH1 0x40 SWAP4 DUP4 PUSH2 0x1201 JUMP JUMPDEST DUP2 ADD SUB SLT PUSH2 0x2AC JUMPI DUP1 MLOAD SWAP1 PUSH2 0xFFFF DUP3 AND DUP3 SUB PUSH2 0x2AC JUMPI PUSH1 0x20 ADD MLOAD PUSH8 0xFFFFFFFFFFFFFFFF DUP2 AND SUB PUSH2 0x2AC JUMPI PUSH2 0xFFFF SWAP1 PUSH2 0x61B JUMP JUMPDEST RETURNDATASIZE SWAP2 POP PUSH2 0x78A JUMP JUMPDEST PUSH1 0x40 MLOAD PUSH3 0x461BCD PUSH1 0xE5 SHL DUP2 MSTORE PUSH1 0x20 PUSH1 0x4 DUP3 ADD MSTORE PUSH1 0x11 PUSH1 0x24 DUP3 ADD MSTORE PUSH17 0xC8D2E6C6DEEADCE840E8DEDE40D0D2CED PUSH1 0x7B SHL PUSH1 0x44 DUP3 ADD MSTORE PUSH1 0x64 SWAP1 REVERT JUMPDEST PUSH1 0x40 MLOAD PUSH3 0x461BCD PUSH1 0xE5 SHL DUP2 MSTORE PUSH1 0x20 PUSH1 0x4 DUP3 ADD MSTORE PUSH1 0x10 PUSH1 0x24 DUP3 ADD MSTORE PUSH16 0xCCDEE4CCCAD2E840E8DEDE40D0D2CED PUSH1 0x83 SHL PUSH1 0x44 DUP3 ADD MSTORE PUSH1 0x64 SWAP1 REVERT JUMPDEST PUSH1 0x40 MLOAD PUSH3 0x461BCD PUSH1 0xE5 SHL DUP2 MSTORE PUSH1 0x20 PUSH1 0x4 DUP3 ADD MSTORE PUSH1 0xB PUSH1 0x24 DUP3 ADD MSTORE PUSH11 0x1898590819195C1BDCDA5D PUSH1 0xAA SHL PUSH1 0x44 DUP3 ADD MSTORE PUSH1 0x64 SWAP1 REVERT JUMPDEST POP PUSH2 0x2710 PUSH1 0x84 CALLDATALOAD GT ISZERO PUSH2 0x4E0 JUMP JUMPDEST PUSH1 0x40 MLOAD PUSH3 0x461BCD PUSH1 0xE5 SHL DUP2 MSTORE PUSH1 0x20 PUSH1 0x4 DUP3 ADD MSTORE PUSH1 0x9 PUSH1 0x24 DUP3 ADD MSTORE PUSH9 0x626164207465726D73 PUSH1 0xB8 SHL PUSH1 0x44 DUP3 ADD MSTORE PUSH1 0x64 SWAP1 REVERT JUMPDEST POP PUSH1 0x64 CALLDATALOAD ISZERO ISZERO PUSH2 0x4D0 JUMP JUMPDEST CALLVALUE PUSH2 0x2AC JUMPI PUSH1 0x0 CALLDATASIZE PUSH1 0x3 NOT ADD SLT PUSH2 0x2AC JUMPI PUSH1 0x2 SLOAD PUSH1 0x40 MLOAD PUSH1 0x1 PUSH1 0x1 PUSH1 0xA0 SHL SUB SWAP1 SWAP2 AND DUP2 MSTORE PUSH1 0x20 SWAP1 RETURN JUMPDEST CALLVALUE PUSH2 0x2AC JUMPI PUSH1 0x0 CALLDATASIZE PUSH1 0x3 NOT ADD SLT PUSH2 0x2AC JUMPI PUSH1 0x5 SLOAD PUSH1 0x40 MLOAD PUSH1 0x1 PUSH1 0x1 PUSH1 0xA0 SHL SUB SWAP1 SWAP2 AND DUP2 MSTORE PUSH1 0x20 SWAP1 RETURN JUMPDEST CALLVALUE PUSH2 0x2AC JUMPI PUSH1 0x20 CALLDATASIZE PUSH1 0x3 NOT ADD SLT PUSH2 0x2AC JUMPI PUSH1 0x4 CALLDATALOAD PUSH1 0x0 MSTORE PUSH1 0x8 PUSH1 0x20 MSTORE PUSH1 0x40 PUSH1 0x0 KECCAK256 PUSH1 0x1 PUSH1 0xA0 SHL PUSH1 0x1 SWAP1 SUB SWAP1 DUP2 DUP2 SLOAD AND SWAP1 DUP3 PUSH1 0x1 DUP3 ADD SLOAD AND SWAP3 PUSH1 0x2 DUP3 ADD SLOAD AND PUSH1 0x3 DUP3 ADD SLOAD PUSH1 0x4 DUP4 ADD SLOAD PUSH1 0x5 DUP5 ADD SLOAD PUSH1 0x6 DUP6 ADD SLOAD PUSH1 0x7 DUP7 ADD SLOAD PUSH1 0x8 DUP8 ADD SLOAD SWAP2 PUSH1 0x9 DUP9 ADD SLOAD SWAP4 PUSH1 0xA DUP10 ADD SLOAD SWAP6 PUSH1 0xB DUP11 ADD SLOAD SWAP8 PUSH1 0xC DUP12 ADD SLOAD SWAP10 PUSH1 0xD DUP13 ADD SLOAD SWAP12 PUSH1 0xE ADD SLOAD SWAP13 PUSH1 0x40 MLOAD SWAP15 DUP16 SWAP2 DUP3 MSTORE PUSH1 0x20 DUP3 ADD MSTORE PUSH1 0x40 ADD MSTORE PUSH1 0x60 DUP14 ADD MSTORE PUSH1 0x80 DUP13 ADD MSTORE PUSH1 0xA0 DUP12 ADD MSTORE PUSH1 0xC0 DUP11 ADD MSTORE PUSH1 0xE0 DUP10 ADD MSTORE PUSH2 0x100 DUP9 ADD MSTORE PUSH2 0x120 DUP8 ADD MSTORE PUSH2 0x140 DUP7 ADD MSTORE PUSH2 0x160 DUP6 ADD MSTORE PUSH2 0x180 DUP5 ADD MSTORE PUSH2 0x1A0 DUP4 ADD MSTORE PUSH2 0x1C0 DUP3 ADD PUSH1 0xFF DUP3 AND SWAP1 PUSH2 0x9F3 SWAP2 PUSH2 0x1183 JUMP JUMPDEST DUP1 PUSH1 0x8 SHR PUSH8 0xFFFFFFFFFFFFFFFF AND PUSH2 0x1E0 DUP4 ADD MSTORE DUP1 PUSH1 0x48 SHR PUSH8 0xFFFFFFFFFFFFFFFF AND PUSH2 0x200 DUP4 ADD MSTORE PUSH1 0x88 SHR PUSH8 0xFFFFFFFFFFFFFFFF AND PUSH2 0x220 DUP3 ADD MSTORE PUSH2 0x240 SWAP1 RETURN JUMPDEST CALLVALUE PUSH2 0x2AC JUMPI PUSH1 0x0 CALLDATASIZE PUSH1 0x3 NOT ADD SLT PUSH2 0x2AC JUMPI PUSH1 0x4 SLOAD PUSH1 0x40 MLOAD PUSH1 0x1 PUSH1 0x1 PUSH1 0xA0 SHL SUB SWAP1 SWAP2 AND DUP2 MSTORE PUSH1 0x20 SWAP1 RETURN JUMPDEST CALLVALUE PUSH2 0x2AC JUMPI PUSH1 0x20 CALLDATASIZE PUSH1 0x3 NOT ADD SLT PUSH2 0x2AC JUMPI PUSH1 0x4 CALLDATALOAD PUSH2 0xA7F PUSH1 0x1 PUSH1 0x0 SLOAD EQ PUSH2 0x1190 JUMP JUMPDEST PUSH1 0x2 PUSH1 0x0 SSTORE DUP1 PUSH1 0x0 MSTORE PUSH1 0x8 PUSH1 0x20 MSTORE PUSH1 0x40 PUSH1 0x0 KECCAK256 PUSH1 0xE DUP2 ADD DUP1 SLOAD PUSH1 0xFF DUP2 AND PUSH1 0x7 DUP2 LT ISZERO PUSH2 0x284 JUMPI PUSH1 0x4 PUSH2 0xAB1 SWAP2 EQ PUSH2 0x11C9 JUMP JUMPDEST PUSH1 0xC DUP4 ADD SWAP3 DUP4 SLOAD PUSH1 0x6 DUP3 ADD DUP1 SLOAD DUP1 SWAP3 LT PUSH2 0xC08 JUMPI PUSH32 0xB2790CFBB501CB5D139A6D2E6B8157F1E9FC7043F1354B6645D9ACCFA9D95582 SWAP6 PUSH1 0x80 SWAP6 PUSH1 0x6 SLOAD DUP1 ISZERO PUSH1 0x0 EQ PUSH2 0xBEE JUMPI POP PUSH1 0x5 PUSH2 0xB05 PUSH1 0x0 DUP1 SWAP7 PUSH2 0x1251 JUMP JUMPDEST SWAP7 PUSH1 0xFF NOT AND OR SWAP1 SSTORE DUP3 ISZERO ISZERO DUP1 PUSH2 0xBDA JUMPI JUMPDEST PUSH2 0xBB5 JUMPI JUMPDEST PUSH1 0x2 DUP5 ADD PUSH2 0xB57 PUSH1 0x1 DUP1 PUSH1 0xA0 SHL SUB SWAP4 DUP5 DUP4 SLOAD AND SWAP4 PUSH2 0xB42 DUP10 PUSH1 0x1 DUP11 ADD SWAP7 DUP9 DUP9 SLOAD AND SWAP1 PUSH2 0x132B JUMP JUMPDEST PUSH1 0xD DUP9 ADD SLOAD DUP1 PUSH2 0xB9D JUMPI JUMPDEST POP SLOAD SWAP1 SLOAD SWAP1 PUSH2 0x1251 JUMP JUMPDEST DUP1 SWAP6 DUP5 DUP3 PUSH2 0xB84 JUMPI JUMPDEST POP POP POP POP SLOAD AND SWAP3 PUSH1 0x40 MLOAD SWAP4 DUP5 MSTORE PUSH1 0x20 DUP5 ADD MSTORE PUSH1 0x40 DUP4 ADD MSTORE PUSH1 0x60 DUP3 ADD MSTORE LOG2 PUSH1 0x1 PUSH1 0x0 SSTORE STOP JUMPDEST DUP1 PUSH2 0xB94 SWAP5 SLOAD AND SWAP2 SLOAD AND SWAP1 PUSH2 0x132B JUMP JUMPDEST DUP9 DUP5 DUP2 DUP5 PUSH2 0xB60 JUMP JUMPDEST PUSH2 0xBAF SWAP1 DUP8 DUP7 SLOAD AND DUP9 DUP9 SLOAD AND SWAP1 PUSH2 0x132B JUMP JUMPDEST DUP13 PUSH2 0xB4D JUMP JUMPDEST PUSH1 0x2 DUP5 ADD SLOAD PUSH1 0x5 SLOAD PUSH2 0xBD5 SWAP2 DUP6 SWAP2 PUSH1 0x1 PUSH1 0x1 PUSH1 0xA0 SHL SUB SWAP1 DUP2 AND SWAP2 AND PUSH2 0x132B JUMP JUMPDEST PUSH2 0xB1B JUMP JUMPDEST POP PUSH1 0x5 SLOAD PUSH1 0x1 PUSH1 0x1 PUSH1 0xA0 SHL SUB AND ISZERO ISZERO PUSH2 0xB16 JUMP JUMPDEST PUSH2 0xB05 PUSH2 0x2710 PUSH2 0xC00 PUSH1 0x5 SWAP4 DUP9 PUSH2 0x125E JUMP JUMPDEST DIV DUP1 SWAP7 PUSH2 0x1251 JUMP JUMPDEST PUSH1 0x40 MLOAD PUSH3 0x461BCD PUSH1 0xE5 SHL DUP2 MSTORE PUSH1 0x20 PUSH1 0x4 DUP3 ADD MSTORE PUSH1 0x13 PUSH1 0x24 DUP3 ADD MSTORE PUSH19 0x696E73756666696369656E7420657363726F77 PUSH1 0x68 SHL PUSH1 0x44 DUP3 ADD MSTORE PUSH1 0x64 SWAP1 REVERT JUMPDEST CALLVALUE PUSH2 0x2AC JUMPI PUSH1 0x60 DUP1 PUSH1 0x3 NOT CALLDATASIZE ADD SLT PUSH2 0x2AC JUMPI PUSH1 0x4 CALLDATALOAD SWAP1 PUSH1 0x24 SWAP2 DUP3 CALLDATALOAD SWAP2 PUSH1 0x44 DUP1 CALLDATALOAD SWAP1 PUSH2 0xC72 PUSH1 0x1 PUSH1 0x0 SLOAD EQ PUSH2 0x1190 JUMP JUMPDEST PUSH1 0x2 PUSH1 0x0 SSTORE DUP4 PUSH1 0x0 MSTORE PUSH1 0x20 PUSH1 0x8 DUP2 MSTORE PUSH1 0x40 PUSH1 0x0 KECCAK256 PUSH1 0xE DUP2 ADD SWAP1 DUP2 SLOAD SWAP2 PUSH1 0xFF DUP4 AND PUSH1 0x7 DUP2 LT ISZERO PUSH2 0xFD5 JUMPI PUSH1 0x1 DUP2 SUB PUSH2 0xFB6 JUMPI POP PUSH8 0xFFFFFFFFFFFFFFFF DUP4 PUSH1 0x48 SHR AND DUP1 ISZERO ISZERO SWAP1 DUP2 PUSH2 0xFAC JUMPI JUMPDEST POP PUSH2 0x3EB JUMPI DUP9 ISZERO ISZERO DUP1 PUSH2 0xF9E JUMPI JUMPDEST ISZERO PUSH2 0xF6A JUMPI PUSH1 0x3 SLOAD PUSH1 0x40 MLOAD PUSH4 0xDE11892B PUSH1 0xE0 SHL DUP2 MSTORE CALLER PUSH1 0x4 DUP3 ADD MSTORE PUSH32 0x5B553D59DC30E2CE5AC2082A51EDB1C07FDD592CE74FE731CD380C27E4E79922 DUP2 DUP14 ADD MSTORE PUSH1 0x1 PUSH1 0x1 PUSH1 0xA0 SHL SUB SWAP5 SWAP2 DUP7 SWAP1 DUP3 SWAP1 DUP10 SWAP1 DUP3 SWAP1 DUP10 AND GAS STATICCALL SWAP1 DUP2 ISZERO PUSH2 0x3DF JUMPI PUSH1 0x0 SWAP2 PUSH2 0xF4D JUMPI JUMPDEST POP ISZERO PUSH2 0xF1B JUMPI DUP4 PUSH1 0x1 SLOAD AND SWAP6 DUP9 PUSH1 0x3 DUP6 ADD SLOAD DUP14 PUSH1 0x40 MLOAD DUP1 SWAP11 DUP2 SWAP4 PUSH4 0xD15D2587 PUSH1 0xE0 SHL DUP4 MSTORE PUSH1 0x4 DUP4 ADD MSTORE GAS STATICCALL SWAP7 DUP8 ISZERO PUSH2 0x3DF JUMPI PUSH1 0x0 SWAP8 PUSH2 0xEEC JUMPI JUMPDEST POP DUP7 ISZERO PUSH2 0xEB3 JUMPI PUSH1 0xA DUP5 ADD SLOAD PUSH2 0x2710 SWAP1 DUP2 SUB DUP2 DUP2 GT PUSH2 0xE9E JUMPI PUSH2 0xD8C SWAP1 DUP10 PUSH2 0x125E JUMP JUMPDEST DIV DUP12 LT PUSH2 0xE6B JUMPI POP PUSH32 0x5A6ACE7E08652681417A3B2CDF1A091D68B8BB347F8215164379D8E14E191AF5 SWAP9 SWAP10 SWAP11 POP SWAP1 PUSH1 0x2 DUP4 SWAP3 DUP8 PUSH1 0x7 DUP11 SWAP8 SWAP7 ADD SSTORE DUP13 PUSH1 0x5 DUP6 ADD SSTORE PUSH2 0xDDA DUP14 PUSH1 0x4 DUP7 ADD SLOAD PUSH2 0x125E JUMP JUMPDEST PUSH1 0x6 DUP6 ADD SSTORE PUSH1 0x1 DUP5 ADD DUP1 SLOAD PUSH1 0x1 PUSH1 0x1 PUSH1 0xA0 SHL SUB NOT AND CALLER OR SWAP1 SSTORE PUSH1 0xFF NOT AND OR SWAP1 SSTORE DUP3 PUSH2 0xE1B JUMPI JUMPDEST POP POP POP PUSH1 0x40 MLOAD SWAP7 DUP8 MSTORE DUP7 ADD MSTORE PUSH1 0x40 DUP6 ADD MSTORE CALLER SWAP4 LOG3 PUSH1 0x1 PUSH1 0x0 SSTORE STOP JUMPDEST PUSH2 0xE37 DUP4 PUSH1 0xD SWAP4 DUP2 PUSH1 0xB DUP6 ADD SSTORE PUSH1 0x2 DUP5 ADD SLOAD AND ADDRESS SWAP1 CALLER SWAP1 PUSH2 0x1271 JUMP JUMPDEST ADD SSTORE DUP6 PUSH32 0x3E157917FABBE1D418840C96B6BCC52532D3126409C286C11A4B2713D5AFC02 DUP3 PUSH1 0x40 MLOAD DUP7 DUP2 MSTORE LOG2 DUP3 DUP9 DUP1 PUSH2 0xE00 JUMP JUMPDEST DUP6 PUSH14 0x3AB73232B91020A490333637B7B9 PUSH1 0x91 SHL PUSH1 0x64 SWAP3 PUSH1 0xE DUP16 PUSH1 0x40 MLOAD SWAP5 PUSH3 0x461BCD PUSH1 0xE5 SHL DUP7 MSTORE PUSH1 0x4 DUP7 ADD MSTORE DUP5 ADD MSTORE DUP3 ADD MSTORE REVERT JUMPDEST DUP14 PUSH4 0x4E487B71 PUSH1 0xE0 SHL PUSH1 0x0 MSTORE PUSH1 0x11 PUSH1 0x4 MSTORE PUSH1 0x0 REVERT JUMPDEST DUP6 PUSH20 0x414920707269636520756E617661696C61626C65 PUSH1 0x60 SHL PUSH1 0x64 SWAP3 PUSH1 0x14 DUP16 PUSH1 0x40 MLOAD SWAP5 PUSH3 0x461BCD PUSH1 0xE5 SHL DUP7 MSTORE PUSH1 0x4 DUP7 ADD MSTORE DUP5 ADD MSTORE DUP3 ADD MSTORE REVERT JUMPDEST SWAP1 SWAP7 POP DUP9 DUP2 DUP2 RETURNDATASIZE DUP4 GT PUSH2 0xF14 JUMPI JUMPDEST PUSH2 0xF04 DUP2 DUP4 PUSH2 0x1201 JUMP JUMPDEST DUP2 ADD SUB SLT PUSH2 0x2AC JUMPI MLOAD SWAP6 DUP13 PUSH2 0xD69 JUMP JUMPDEST POP RETURNDATASIZE PUSH2 0xEFA JUMP JUMPDEST PUSH1 0x40 MLOAD PUSH3 0x461BCD PUSH1 0xE5 SHL DUP2 MSTORE PUSH1 0x4 DUP2 ADD DUP7 SWAP1 MSTORE PUSH1 0xC DUP2 DUP14 ADD MSTORE PUSH12 0x14D4D2481C995C5D5A5C9959 PUSH1 0xA2 SHL DUP2 DUP9 ADD MSTORE PUSH1 0x64 SWAP1 REVERT JUMPDEST PUSH2 0xF64 SWAP2 POP DUP7 RETURNDATASIZE DUP9 GT PUSH2 0x3D8 JUMPI PUSH2 0x3CA DUP2 DUP4 PUSH2 0x1201 JUMP JUMPDEST DUP13 PUSH2 0xD2F JUMP JUMPDEST PUSH1 0x40 MLOAD PUSH3 0x461BCD PUSH1 0xE5 SHL DUP2 MSTORE PUSH1 0x4 DUP2 ADD DUP6 SWAP1 MSTORE PUSH1 0xE DUP2 DUP13 ADD MSTORE PUSH14 0xE0E4D2C6CA40E8DEDE40D0D2CED PUSH1 0x93 SHL DUP2 DUP8 ADD MSTORE PUSH1 0x64 SWAP1 REVERT JUMPDEST POP PUSH1 0x5 DUP3 ADD SLOAD DUP10 GT ISZERO PUSH2 0xCCA JUMP JUMPDEST SWAP1 POP TIMESTAMP GT DUP12 PUSH2 0xCBC JUMP JUMPDEST PUSH1 0x40 MLOAD PUSH4 0x73F629B7 PUSH1 0xE1 SHL DUP2 MSTORE DUP12 SWAP2 PUSH2 0xFD3 SWAP1 PUSH1 0x4 DUP4 ADD SWAP1 PUSH2 0x1183 JUMP JUMPDEST REVERT JUMPDEST DUP11 PUSH4 0x4E487B71 PUSH1 0xE0 SHL PUSH1 0x0 MSTORE PUSH1 0x21 PUSH1 0x4 MSTORE PUSH1 0x0 REVERT JUMPDEST CALLVALUE PUSH2 0x2AC JUMPI PUSH1 0x0 CALLDATASIZE PUSH1 0x3 NOT ADD SLT PUSH2 0x2AC JUMPI PUSH1 0x20 PUSH1 0x40 MLOAD PUSH32 0x5B553D59DC30E2CE5AC2082A51EDB1C07FDD592CE74FE731CD380C27E4E79922 DUP2 MSTORE RETURN JUMPDEST CALLVALUE PUSH2 0x2AC JUMPI PUSH1 0x40 CALLDATASIZE PUSH1 0x3 NOT ADD SLT PUSH2 0x2AC JUMPI PUSH1 0x4 CALLDATALOAD PUSH1 0x24 CALLDATALOAD PUSH2 0x104A PUSH1 0x1 PUSH1 0x0 SLOAD EQ PUSH2 0x1190 JUMP JUMPDEST PUSH1 0x2 PUSH1 0x0 SWAP1 DUP2 SSTORE DUP3 DUP2 MSTORE PUSH1 0x8 PUSH1 0x20 MSTORE PUSH1 0x40 SWAP1 KECCAK256 DUP1 SLOAD PUSH1 0x1 PUSH1 0x1 PUSH1 0xA0 SHL SUB SWAP3 SWAP1 DUP4 AND CALLER SUB PUSH2 0x29A JUMPI PUSH1 0xE DUP3 ADD SWAP3 PUSH1 0xFF DUP5 SLOAD AND PUSH1 0x7 DUP2 LT ISZERO PUSH2 0x284 JUMPI PUSH2 0x10AD SWAP2 PUSH2 0x109E DUP3 PUSH1 0x2 DUP7 SWAP5 EQ SWAP1 DUP2 ISZERO PUSH2 0x1116 JUMPI POP PUSH2 0x11C9 JUMP JUMPDEST PUSH1 0x2 DUP6 ADD SLOAD AND ADDRESS SWAP1 CALLER SWAP1 PUSH2 0x1271 JUMP JUMPDEST PUSH1 0xC DUP3 ADD SWAP3 DUP4 SLOAD SWAP1 DUP3 DUP3 ADD DUP1 SWAP3 GT PUSH2 0x723 JUMPI PUSH1 0x6 PUSH1 0x40 SWAP5 DUP4 PUSH32 0xE15CAABF05531988DFBF1D9E03E2FBE08B9E6B6B21BE88CC84DC434B14F3144E SWAP8 SSTORE ADD SLOAD DUP3 LT ISZERO PUSH2 0x1105 JUMPI JUMPDEST POP DUP3 MLOAD SWAP2 DUP3 MSTORE PUSH1 0x20 DUP3 ADD MSTORE LOG2 PUSH1 0x1 PUSH1 0x0 SSTORE STOP JUMPDEST DUP1 SLOAD PUSH1 0xFF NOT AND PUSH1 0x3 OR SWAP1 SSTORE DUP6 PUSH2 0x10F2 JUMP JUMPDEST PUSH1 0x3 SWAP2 POP EQ DUP10 PUSH2 0x158 JUMP JUMPDEST CALLVALUE PUSH2 0x2AC JUMPI PUSH1 0x0 CALLDATASIZE PUSH1 0x3 NOT ADD SLT PUSH2 0x2AC JUMPI PUSH1 0x20 PUSH1 0x6 SLOAD PUSH1 0x40 MLOAD SWAP1 DUP2 MSTORE RETURN JUMPDEST CALLVALUE PUSH2 0x2AC JUMPI PUSH1 0x0 CALLDATASIZE PUSH1 0x3 NOT ADD SLT PUSH2 0x2AC JUMPI PUSH1 0x1 SLOAD PUSH1 0x40 MLOAD PUSH1 0x1 PUSH1 0x1 PUSH1 0xA0 SHL SUB SWAP1 SWAP2 AND DUP2 MSTORE PUSH1 0x20 SWAP1 RETURN JUMPDEST CALLVALUE PUSH2 0x2AC JUMPI PUSH1 0x0 CALLDATASIZE PUSH1 0x3 NOT ADD SLT PUSH2 0x2AC JUMPI PUSH1 0x20 SWAP1 PUSH1 0x7 SLOAD DUP2 MSTORE RETURN JUMPDEST SWAP1 PUSH1 0x7 DUP3 LT ISZERO PUSH2 0x284 JUMPI MSTORE JUMP JUMPDEST ISZERO PUSH2 0x1197 JUMPI JUMP JUMPDEST PUSH1 0x40 MLOAD PUSH3 0x461BCD PUSH1 0xE5 SHL DUP2 MSTORE PUSH1 0x20 PUSH1 0x4 DUP3 ADD MSTORE PUSH1 0xA PUSH1 0x24 DUP3 ADD MSTORE PUSH10 0x5245454E5452414E4359 PUSH1 0xB0 SHL PUSH1 0x44 DUP3 ADD MSTORE PUSH1 0x64 SWAP1 REVERT JUMPDEST ISZERO PUSH2 0x11D0 JUMPI JUMP JUMPDEST PUSH1 0x40 MLOAD PUSH3 0x461BCD PUSH1 0xE5 SHL DUP2 MSTORE PUSH1 0x20 PUSH1 0x4 DUP3 ADD MSTORE PUSH1 0x9 PUSH1 0x24 DUP3 ADD MSTORE PUSH9 0x626164207374617465 PUSH1 0xB8 SHL PUSH1 0x44 DUP3 ADD MSTORE PUSH1 0x64 SWAP1 REVERT JUMPDEST SWAP1 PUSH1 0x1F DUP1 NOT SWAP2 ADD AND DUP2 ADD SWAP1 DUP2 LT PUSH8 0xFFFFFFFFFFFFFFFF DUP3 GT OR PUSH2 0x1223 JUMPI PUSH1 0x40 MSTORE JUMP JUMPDEST PUSH4 0x4E487B71 PUSH1 0xE0 SHL PUSH1 0x0 MSTORE PUSH1 0x41 PUSH1 0x4 MSTORE PUSH1 0x24 PUSH1 0x0 REVERT JUMPDEST SWAP1 DUP2 PUSH1 0x20 SWAP2 SUB SLT PUSH2 0x2AC JUMPI MLOAD DUP1 ISZERO ISZERO DUP2 SUB PUSH2 0x2AC JUMPI SWAP1 JUMP JUMPDEST SWAP2 SWAP1 DUP3 SUB SWAP2 DUP3 GT PUSH2 0x723 JUMPI JUMP JUMPDEST DUP2 DUP2 MUL SWAP3 SWAP2 DUP2 ISZERO SWAP2 DUP5 DIV EQ OR ISZERO PUSH2 0x723 JUMPI JUMP JUMPDEST PUSH1 0x40 MLOAD PUSH4 0x23B872DD PUSH1 0xE0 SHL DUP2 MSTORE PUSH1 0x1 PUSH1 0x1 PUSH1 0xA0 SHL SUB SWAP3 DUP4 AND PUSH1 0x4 DUP3 ADD MSTORE SWAP3 DUP3 AND PUSH1 0x24 DUP5 ADD MSTORE PUSH1 0x44 DUP4 ADD SWAP4 SWAP1 SWAP4 MSTORE SWAP1 SWAP2 PUSH1 0x20 SWAP2 DUP4 SWAP2 PUSH1 0x64 SWAP2 DUP4 SWAP2 PUSH1 0x0 SWAP2 AND GAS CALL SWAP1 DUP2 ISZERO PUSH2 0x3DF JUMPI PUSH1 0x0 SWAP2 PUSH2 0x130C JUMPI JUMPDEST POP ISZERO PUSH2 0x12C7 JUMPI JUMP JUMPDEST PUSH1 0x40 MLOAD PUSH3 0x461BCD PUSH1 0xE5 SHL DUP2 MSTORE PUSH1 0x20 PUSH1 0x4 DUP3 ADD MSTORE PUSH1 0x19 PUSH1 0x24 DUP3 ADD MSTORE PUSH32 0x4552433230207472616E7366657246726F6D206661696C656400000000000000 PUSH1 0x44 DUP3 ADD MSTORE PUSH1 0x64 SWAP1 REVERT JUMPDEST PUSH2 0x1325 SWAP2 POP PUSH1 0x20 RETURNDATASIZE PUSH1 0x20 GT PUSH2 0x3D8 JUMPI PUSH2 0x3CA DUP2 DUP4 PUSH2 0x1201 JUMP JUMPDEST CODESIZE PUSH2 0x12BF JUMP JUMPDEST PUSH1 0x40 MLOAD PUSH4 0xA9059CBB PUSH1 0xE0 SHL DUP2 MSTORE PUSH1 0x1 PUSH1 0x1 PUSH1 0xA0 SHL SUB SWAP3 DUP4 AND PUSH1 0x4 DUP3 ADD MSTORE PUSH1 0x24 DUP2 ADD SWAP4 SWAP1 SWAP4 MSTORE PUSH1 0x20 SWAP2 DUP4 SWAP2 PUSH1 0x44 SWAP2 DUP4 SWAP2 PUSH1 0x0 SWAP2 AND GAS CALL SWAP1 DUP2 ISZERO PUSH2 0x3DF JUMPI PUSH1 0x0 SWAP2 PUSH2 0x13B4 JUMPI JUMPDEST POP ISZERO PUSH2 0x1377 JUMPI JUMP JUMPDEST PUSH1 0x40 MLOAD PUSH3 0x461BCD PUSH1 0xE5 SHL DUP2 MSTORE PUSH1 0x20 PUSH1 0x4 DUP3 ADD MSTORE PUSH1 0x15 PUSH1 0x24 DUP3 ADD MSTORE PUSH21 0x115490CC8C081D1C985B9CD9995C8819985A5B1959 PUSH1 0x5A SHL PUSH1 0x44 DUP3 ADD MSTORE PUSH1 0x64 SWAP1 REVERT JUMPDEST PUSH2 0x13CD SWAP2 POP PUSH1 0x20 RETURNDATASIZE PUSH1 0x20 GT PUSH2 0x3D8 JUMPI PUSH2 0x3CA DUP2 DUP4 PUSH2 0x1201 JUMP JUMPDEST CODESIZE PUSH2 0x136F JUMP INVALID LOG2 PUSH5 0x6970667358 0x22 SLT KECCAK256 EXTCODESIZE PUSH13 0x79CACF6D538BECDC1182DCB336 0x4C DUP1 0xE7 SWAP15 MLOAD CODECOPY PUSH2 0x8362 PC 0xF 0x2B 0xC9 SWAP8 0xAB OR PUSH23 0x64736F6C63430008180033000000000000000000000000 "},"methodIdentifiers":{"ROLE_COOP_MEMBER()":"53fd0496","acceptOrder(uint256,uint256,uint256)":"854ffeee","aiOracle()":"31b221cd","createOrder(address,bytes32,uint256,uint256,uint256,uint256,uint256,uint64,uint64,uint256)":"c6e02260","credit()":"a06d083c","deliveryOracle()":"b8917b3b","feeReceiver()":"b3f00674","fundRemainder(uint256,uint256)":"539bcd71","markDelivered(uint256)":"eb826a5f","nextOrderId()":"2a58b330","orders(uint256)":"a85c38ef","protocolFeeBps()":"35659fb8","settle(uint256)":"8df82800","ssi()":"ca9588b9","surrender(uint256)":"fd61d10b"}}}}}