{"src/oracles/MockDeliveryOracle.sol":{"MockDeliveryOracle":{"abi":[{"inputs":[{"internalType":"uint256","name":"","type":"uint256"}],"name":"delivered","outputs":[{"internalType":"bool","name":"","type":"bool"}],"stateMutability":"view","type":"function"},{"inputs":[{"internalType":"uint256","name":"id","type":"uint256"}],"name":"isDelivered","outputs":[{"internalType":"bool","name":"","type":"bool"}],"stateMutability":"view","type":"function"},{"inputs":[{"internalType":"uint256","name":"id","type":"uint256"},{"internalType":"bool","name":"v","type":"bool"}],"name":"setDelivered","outputs":[],"stateMutability":"nonpayable","type":"function"}],"evm":{"bytecode":{"linkReferences":{},"object":"6080806040523461001657610105908161001c8239f35b600080fdfe608060408181526004361015601357600080fd5b600091823560e01c9081634b5e41081460a757508063b5df70d414606c5763dcdb69d214603f57600080fd5b34606857602036600319011260685760ff81602093600435815280855220541690519015158152f35b5080fd5b5034606857806003193601126068576024359081151580920360a35760043583528260205282209060ff8019835416911617905580f35b8280fd5b9190503460a357602036600319011260a3576004358352602083815292205460ff1615158152f3fea26469706673582212202454e44e26ba21dfebda97c5e79b20b3bfbc51b87d1694f1b6ff7fbaef529f3064736f6c63430008180033","opcodes":"PUSH1 0x80 DUP1 PUSH1 0x40 MSTORE CALLVALUE PUSH2 0x16 JUMPI PUSH2 0x105 SWAP1 DUP2 PUSH2 0x1C DUP3 CODECOPY RETURN JUMPDEST PUSH1 0x0 DUP1 REVERT INVALID PUSH1 0x80 PUSH1 0x40 DUP2 DUP2 MSTORE PUSH1 0x4 CALLDATASIZE LT ISZERO PUSH1 0x13 JUMPI PUSH1 0x0 DUP1 REVERT JUMPDEST PUSH1 0x0 SWAP2 DUP3 CALLDATALOAD PUSH1 0xE0 SHR SWAP1 DUP2 PUSH4 0x4B5E4108 EQ PUSH1 0xA7 JUMPI POP DUP1 PUSH4 0xB5DF70D4 EQ PUSH1 0x6C JUMPI PUSH4 0xDCDB69D2 EQ PUSH1 0x3F JUMPI PUSH1 0x0 DUP1 REVERT JUMPDEST CALLVALUE PUSH1 0x68 JUMPI PUSH1 0x20 CALLDATASIZE PUSH1 0x3 NOT ADD SLT PUSH1 0x68 JUMPI PUSH1 0xFF DUP2 PUSH1 0x20 SWAP4 PUSH1 0x4 CALLDATALOAD DUP2 MSTORE DUP1 DUP6 MSTORE KECCAK256 SLOAD AND SWAP1 MLOAD SWAP1 ISZERO ISZERO DUP2 MSTORE RETURN JUMPDEST POP DUP1 REVERT JUMPDEST POP CALLVALUE PUSH1 0x68 JUMPI DUP1 PUSH1 0x3 NOT CALLDATASIZE ADD SLT PUSH1 0x68 JUMPI PUSH1 0x24 CALLDATALOAD SWAP1 DUP2 ISZERO ISZERO DUP1 SWAP3 SUB PUSH1 0xA3 JUMPI PUSH1 0x4 CALLDATALOAD DUP4 MSTORE DUP3 PUSH1 0x20 MSTORE DUP3 KECCAK256 SWAP1 PUSH1 0xFF DUP1 NOT DUP4 SLOAD AND SWAP2 AND OR SWAP1 SSTORE DUP1 RETURN JUMPDEST DUP3 DUP1 REVERT JUMPDEST SWAP2 SWAP1 POP CALLVALUE PUSH1 0xA3 JUMPI PUSH1 0x20 CALLDATASIZE PUSH1 0x3 NOT ADD SLT PUSH1 0xA3 JUMPI PUSH1 0x4 CALLDATALOAD DUP4 MSTORE PUSH1 0x20 DUP4 DUP2 MSTORE SWAP3 KECCAK256 SLOAD PUSH1 0xFF AND ISZERO ISZERO DUP2 MSTORE RETURN INVALID LOG2 PUSH5 0x6970667358 0x22 SLT KECCAK256 0x24 SLOAD 0xE4 0x4E 0x26 0xBA 0x21 0xDF 0xEB 0xDA SWAP8 0xC5 0xE7 SWAP12 KECCAK256 0xB3 0xBF 0xBC MLOAD 0xB8 PUSH30 0x1694F1B6FF7FBAEF529F3064736F6C634300081800330000000000000000 "},"methodIdentifiers":{"delivered(uint256)":"4b5e4108","isDelivered(uint256)":"dcdb69d2","setDelivered(uint256,bool)":"b5df70d4"}}}}}