{"src/ssi/SSIRegistry.sol":{"SSIRegistry":{"abi":[{"inputs":[{"internalType":"address","name":"_verifier","type":"address"}],"stateMutability":"nonpayable","type":"constructor"},{"anonymous":false,"inputs":[{"indexed":true,"internalType":"address","name":"user","type":"address"},{"indexed":true,"internalType":"bytes32","name":"role","type":"bytes32"},{"indexed":false,"internalType":"uint64","name":"until","type":"uint64"}],"name":"Authorized","type":"event"},{"inputs":[{"internalType":"address","name":"","type":"address"},{"internalType":"bytes32","name":"","type":"bytes32"}],"name":"authorizedUntil","outputs":[{"internalType":"uint64","name":"","type":"uint64"}],"stateMutability":"view","type":"function"},{"inputs":[{"internalType":"address","name":"user","type":"address"},{"internalType":"bytes32","name":"role","type":"bytes32"}],"name":"isAuthorized","outputs":[{"internalType":"bool","name":"","type":"bool"}],"stateMutability":"view","type":"function"},{"inputs":[{"internalType":"address","name":"user","type":"address"},{"internalType":"bytes32","name":"role","type":"bytes32"},{"internalType":"uint64","name":"until","type":"uint64"}],"name":"setAuthorized","outputs":[],"stateMutability":"nonpayable","type":"function"},{"inputs":[],"name":"verifier","outputs":[{"internalType":"address","name":"","type":"address"}],"stateMutability":"view","type":"function"}],"evm":{"bytecode":{"linkReferences":{},"object":"60803461007457601f6102fb38819003918201601f19168301916001600160401b038311848410176100795780849260209460405283398101031261007457516001600160a01b0381169081900361007457600080546001600160a01b03191691909117905560405161026b90816100908239f35b600080fd5b634e487b7160e01b600052604160045260246000fdfe60806040818152600436101561001457600080fd5b600091823560e01c9081632b7ac3f3146101f657508063d6d60455146101ab578063de11892b1461015d5763e06932221461004e57600080fd5b346101595760603660031901126101595761006761021a565b90602435916044359067ffffffffffffffff82168092036101555784546001600160a01b0391908216330361012257428311156100f15716808552600160209081528386208587528152838620805467ffffffffffffffff1916841790559251918252917f76239485e523292bbef8d8e0fcaf20ca57d8bbb12fcd7a1ca3e19e323a58aac991a380f35b835162461bcd60e51b815260206004820152600a6024820152696261642065787069727960b01b6044820152606490fd5b835162461bcd60e51b815260206004820152600c60248201526b3737ba103b32b934b334b2b960a11b6044820152606490fd5b8480fd5b5080fd5b503461015957806003193601126101595760209167ffffffffffffffff9082906001600160a01b0361018d61021a565b16815260018552818120602435825285522054169051904211158152f35b503461015957806003193601126101595760209167ffffffffffffffff9082906001600160a01b036101db61021a565b16815260018552818120602435825285522054169051908152f35b83903461015957816003193601126101595790546001600160a01b03168152602090f35b600435906001600160a01b038216820361023057565b600080fdfea2646970667358221220596c5554ac255b0856b9d8707434377be317b56ff43dc62a18f7892faa57adfd64736f6c63430008180033","opcodes":"PUSH1 0x80 CALLVALUE PUSH2 0x74 JUMPI PUSH1 0x1F PUSH2 0x2FB CODESIZE DUP2 SWAP1 SUB SWAP2 DUP3 ADD PUSH1 0x1F NOT AND DUP4 ADD SWAP2 PUSH1 0x1 PUSH1 0x1 PUSH1 0x40 SHL SUB DUP4 GT DUP5 DUP5 LT OR PUSH2 0x79 JUMPI DUP1 DUP5 SWAP3 PUSH1 0x20 SWAP5 PUSH1 0x40 MSTORE DUP4 CODECOPY DUP2 ADD SUB SLT PUSH2 0x74 JUMPI MLOAD PUSH1 0x1 PUSH1 0x1 PUSH1 0xA0 SHL SUB DUP2 AND SWAP1 DUP2 SWAP1 SUB PUSH2 0x74 JUMPI PUSH1 0x0 DUP1 SLOAD PUSH1 0x1 PUSH1 0x1 PUSH1 0xA0 SHL SUB NOT AND SWAP2 SWAP1 SWAP2 OR SWAP1 SSTORE PUSH1 0x40 MLOAD PUSH2 0x26B SWAP1 DUP2 PUSH2 0x90 DUP3 CODECOPY RETURN JUMPDEST PUSH1 0x0 DUP1 REVERT JUMPDEST PUSH4 0x4E487B71 PUSH1 0xE0 SHL PUSH1 0x0 MSTORE PUSH1 0x41 PUSH1 0x4 MSTORE PUSH1 0x24 PUSH1 0x0 REVERT INVALID PUSH1 0x80 PUSH1 0x40 DUP2 DUP2 MSTORE PUSH1 0x4 CALLDATASIZE LT ISZERO PUSH2 0x14 JUMPI PUSH1 0x0 DUP1 REVERT JUMPDEST PUSH1 0x0 SWAP2 DUP3 CALLDATALOAD PUSH1 0xE0 SHR SWAP1 DUP2 PUSH4 0x2B7AC3F3 EQ PUSH2 0x1F6 JUMPI POP DUP1 PUSH4 0xD6D60455 EQ PUSH2 0x1AB JUMPI DUP1 PUSH4 0xDE11892B EQ PUSH2 0x15D JUMPI PUSH4 0xE0693222 EQ PUSH2 0x4E JUMPI PUSH1 0x0 DUP1 REVERT JUMPDEST CALLVALUE PUSH2 0x159 JUMPI PUSH1 0x60 CALLDATASIZE PUSH1 0x3 NOT ADD SLT PUSH2 0x159 JUMPI PUSH2 0x67 PUSH2 0x21A JUMP JUMPDEST SWAP1 PUSH1 0x24 CALLDATALOAD SWAP2 PUSH1 0x44 CALLDATALOAD SWAP1 PUSH8 0xFFFFFFFFFFFFFFFF DUP3 AND DUP1 SWAP3 SUB PUSH2 0x155 JUMPI DUP5 SLOAD PUSH1 0x1 PUSH1 0x1 PUSH1 0xA0 SHL SUB SWAP2 SWAP1 DUP3 AND CALLER SUB PUSH2 0x122 JUMPI TIMESTAMP DUP4 GT ISZERO PUSH2 0xF1 JUMPI AND DUP1 DUP6 MSTORE PUSH1 0x1 PUSH1 0x20 SWAP1 DUP2 MSTORE DUP4 DUP7 KECCAK256 DUP6 DUP8 MSTORE DUP2 MSTORE DUP4 DUP7 KECCAK256 DUP1 SLOAD PUSH8 0xFFFFFFFFFFFFFFFF NOT AND DUP5 OR SWAP1 SSTORE SWAP3 MLOAD SWAP2 DUP3 MSTORE SWAP2 PUSH32 0x76239485E523292BBEF8D8E0FCAF20CA57D8BBB12FCD7A1CA3E19E323A58AAC9 SWAP2 LOG3 DUP1 RETURN JUMPDEST DUP4 MLOAD PUSH3 0x461BCD PUSH1 0xE5 SHL DUP2 MSTORE PUSH1 0x20 PUSH1 0x4 DUP3 ADD MSTORE PUSH1 0xA PUSH1 0x24 DUP3 ADD MSTORE PUSH10 0x62616420657870697279 PUSH1 0xB0 SHL PUSH1 0x44 DUP3 ADD MSTORE PUSH1 0x64 SWAP1 REVERT JUMPDEST DUP4 MLOAD PUSH3 0x461BCD PUSH1 0xE5 SHL DUP2 MSTORE PUSH1 0x20 PUSH1 0x4 DUP3 ADD MSTORE PUSH1 0xC PUSH1 0x24 DUP3 ADD MSTORE PUSH12 0x3737BA103B32B934B334B2B9 PUSH1 0xA1 SHL PUSH1 0x44 DUP3 ADD MSTORE PUSH1 0x64 SWAP1 REVERT JUMPDEST DUP5 DUP1 REVERT JUMPDEST POP DUP1 REVERT JUMPDEST POP CALLVALUE PUSH2 0x159 JUMPI DUP1 PUSH1 0x3 NOT CALLDATASIZE ADD SLT PUSH2 0x159 JUMPI PUSH1 0x20 SWAP2 PUSH8 0xFFFFFFFFFFFFFFFF SWAP1 DUP3 SWAP1 PUSH1 0x1 PUSH1 0x1 PUSH1 0xA0 SHL SUB PUSH2 0x18D PUSH2 0x21A JUMP JUMPDEST AND DUP2 MSTORE PUSH1 0x1 DUP6 MSTORE DUP2 DUP2 KECCAK256 PUSH1 0x24 CALLDATALOAD DUP3 MSTORE DUP6 MSTORE KECCAK256 SLOAD AND SWAP1 MLOAD SWAP1 TIMESTAMP GT ISZERO DUP2 MSTORE RETURN JUMPDEST POP CALLVALUE PUSH2 0x159 JUMPI DUP1 PUSH1 0x3 NOT CALLDATASIZE ADD SLT PUSH2 0x159 JUMPI PUSH1 0x20 SWAP2 PUSH8 0xFFFFFFFFFFFFFFFF SWAP1 DUP3 SWAP1 PUSH1 0x1 PUSH1 0x1 PUSH1 0xA0 SHL SUB PUSH2 0x1DB PUSH2 0x21A JUMP JUMPDEST AND DUP2 MSTORE PUSH1 0x1 DUP6 MSTORE DUP2 DUP2 KECCAK256 PUSH1 0x24 CALLDATALOAD DUP3 MSTORE DUP6 MSTORE KECCAK256 SLOAD AND SWAP1 MLOAD SWAP1 DUP2 MSTORE RETURN JUMPDEST DUP4 SWAP1 CALLVALUE PUSH2 0x159 JUMPI DUP2 PUSH1 0x3 NOT CALLDATASIZE ADD SLT PUSH2 0x159 JUMPI SWAP1 SLOAD PUSH1 0x1 PUSH1 0x1 PUSH1 0xA0 SHL SUB AND DUP2 MSTORE PUSH1 0x20 SWAP1 RETURN JUMPDEST PUSH1 0x4 CALLDATALOAD SWAP1 PUSH1 0x1 PUSH1 0x1 PUSH1 0xA0 SHL SUB DUP3 AND DUP3 SUB PUSH2 0x230 JUMPI JUMP JUMPDEST PUSH1 0x0 DUP1 REVERT INVALID LOG2 PUSH5 0x6970667358 0x22 SLT KECCAK256 MSIZE PUSH13 0x5554AC255B0856B9D870743437 PUSH28 0xE317B56FF43DC62A18F7892FAA57ADFD64736F6C6343000818003300 "},"methodIdentifiers":{"authorizedUntil(address,bytes32)":"d6d60455","isAuthorized(address,bytes32)":"de11892b","setAuthorized(address,bytes32,uint64)":"e0693222","verifier()":"2b7ac3f3"}}}}}