{"src/oracles/MockAIOracle.sol":{"MockAIOracle":{"abi":[{"inputs":[{"internalType":"bytes32","name":"","type":"bytes32"}],"name":"conf","outputs":[{"internalType":"uint256","name":"","type":"uint256"}],"stateMutability":"view","type":"function"},{"inputs":[{"internalType":"bytes32","name":"","type":"bytes32"}],"name":"floor","outputs":[{"internalType":"uint256","name":"","type":"uint256"}],"stateMutability":"view","type":"function"},{"inputs":[{"internalType":"bytes32","name":"marketKey","type":"bytes32"}],"name":"getFloorPrice","outputs":[{"internalType":"uint256","name":"","type":"uint256"},{"internalType":"uint256","name":"","type":"uint256"},{"internalType":"uint256","name":"","type":"uint256"}],"stateMutability":"view","type":"function"},{"inputs":[{"internalType":"bytes32","name":"marketKey","type":"bytes32"},{"internalType":"uint256","name":"pricePerUnit","type":"uint256"},{"internalType":"uint256","name":"confidence","type":"uint256"}],"name":"set","outputs":[],"stateMutability":"nonpayable","type":"function"},{"inputs":[{"internalType":"bytes32","name":"","type":"bytes32"}],"name":"ts","outputs":[{"internalType":"uint256","name":"","type":"uint256"}],"stateMutability":"view","type":"function"}],"evm":{"bytecode":{"linkReferences":{},"object":"6080806040523461001657610182908161001c8239f35b600080fdfe6040608081526004908136101561001557600080fd5b600091823560e01c8063359c351d146101135780635ca0e7a4146100ed578063b831e65b146100c6578063d15d2587146100825763dd873ef81461005857600080fd5b3461007e57602036600319011261007e5760209282913581526001845220549051908152f35b8280fd5b503461007e57602036600319011261007e57916060923581528060205281812054916001602052808083205492600260205220549181519384526020840152820152f35b503461007e57602036600319011261007e5760209282913581526002845220549051908152f35b503461007e57602036600319011261007e57602092829135815280845220549051908152f35b503461007e57606036600319011261007e5735825281602052602435818320556001602052604435818320556002602052429082205580f3fea26469706673582212200931a400f94cd5876f8c8b11453f2b981b4eb60112ed3bcb4a6651f3034d3d4c64736f6c63430008180033","opcodes":"PUSH1 0x80 DUP1 PUSH1 0x40 MSTORE CALLVALUE PUSH2 0x16 JUMPI PUSH2 0x182 SWAP1 DUP2 PUSH2 0x1C DUP3 CODECOPY RETURN JUMPDEST PUSH1 0x0 DUP1 REVERT INVALID PUSH1 0x40 PUSH1 0x80 DUP2 MSTORE PUSH1 0x4 SWAP1 DUP2 CALLDATASIZE LT ISZERO PUSH2 0x15 JUMPI PUSH1 0x0 DUP1 REVERT JUMPDEST PUSH1 0x0 SWAP2 DUP3 CALLDATALOAD PUSH1 0xE0 SHR DUP1 PUSH4 0x359C351D EQ PUSH2 0x113 JUMPI DUP1 PUSH4 0x5CA0E7A4 EQ PUSH2 0xED JUMPI DUP1 PUSH4 0xB831E65B EQ PUSH2 0xC6 JUMPI DUP1 PUSH4 0xD15D2587 EQ PUSH2 0x82 JUMPI PUSH4 0xDD873EF8 EQ PUSH2 0x58 JUMPI PUSH1 0x0 DUP1 REVERT JUMPDEST CALLVALUE PUSH2 0x7E JUMPI PUSH1 0x20 CALLDATASIZE PUSH1 0x3 NOT ADD SLT PUSH2 0x7E JUMPI PUSH1 0x20 SWAP3 DUP3 SWAP2 CALLDATALOAD DUP2 MSTORE PUSH1 0x1 DUP5 MSTORE KECCAK256 SLOAD SWAP1 MLOAD SWAP1 DUP2 MSTORE RETURN JUMPDEST DUP3 DUP1 REVERT JUMPDEST POP CALLVALUE PUSH2 0x7E JUMPI PUSH1 0x20 CALLDATASIZE PUSH1 0x3 NOT ADD SLT PUSH2 0x7E JUMPI SWAP2 PUSH1 0x60 SWAP3 CALLDATALOAD DUP2 MSTORE DUP1 PUSH1 0x20 MSTORE DUP2 DUP2 KECCAK256 SLOAD SWAP2 PUSH1 0x1 PUSH1 0x20 MSTORE DUP1 DUP1 DUP4 KECCAK256 SLOAD SWAP3 PUSH1 0x2 PUSH1 0x20 MSTORE KECCAK256 SLOAD SWAP2 DUP2 MLOAD SWAP4 DUP5 MSTORE PUSH1 0x20 DUP5 ADD MSTORE DUP3 ADD MSTORE RETURN JUMPDEST POP CALLVALUE PUSH2 0x7E JUMPI PUSH1 0x20 CALLDATASIZE PUSH1 0x3 NOT ADD SLT PUSH2 0x7E JUMPI PUSH1 0x20 SWAP3 DUP3 SWAP2 CALLDATALOAD DUP2 MSTORE PUSH1 0x2 DUP5 MSTORE KECCAK256 SLOAD SWAP1 MLOAD SWAP1 DUP2 MSTORE RETURN JUMPDEST POP CALLVALUE PUSH2 0x7E JUMPI PUSH1 0x20 CALLDATASIZE PUSH1 0x3 NOT ADD SLT PUSH2 0x7E JUMPI PUSH1 0x20 SWAP3 DUP3 SWAP2 CALLDATALOAD DUP2 MSTORE DUP1 DUP5 MSTORE KECCAK256 SLOAD SWAP1 MLOAD SWAP1 DUP2 MSTORE RETURN JUMPDEST POP CALLVALUE PUSH2 0x7E JUMPI PUSH1 0x60 CALLDATASIZE PUSH1 0x3 NOT ADD SLT PUSH2 0x7E JUMPI CALLDATALOAD DUP3 MSTORE DUP2 PUSH1 0x20 MSTORE PUSH1 0x24 CALLDATALOAD DUP2 DUP4 KECCAK256 SSTORE PUSH1 0x1 PUSH1 0x20 MSTORE PUSH1 0x44 CALLDATALOAD DUP2 DUP4 KECCAK256 SSTORE PUSH1 0x2 PUSH1 0x20 MSTORE TIMESTAMP SWAP1 DUP3 KECCAK256 SSTORE DUP1 RETURN INVALID LOG2 PUSH5 0x6970667358 0x22 SLT KECCAK256 MULMOD BALANCE LOG4 STOP 0xF9 0x4C 0xD5 DUP8 PUSH16 0x8C8B11453F2B981B4EB60112ED3BCB4A PUSH7 0x51F3034D3D4C64 PUSH20 0x6F6C634300081800330000000000000000000000 "},"methodIdentifiers":{"conf(bytes32)":"dd873ef8","floor(bytes32)":"5ca0e7a4","getFloorPrice(bytes32)":"d15d2587","set(bytes32,uint256,uint256)":"359c351d","ts(bytes32)":"b831e65b"}}}}}