{
  "_format": "hh-sol-artifact-1",
  "contractName": "HarvestChainEscrowAI",
  "sourceName": "src/core/HarvestChainEscrowAI.sol",
  "abi": [
    {
      "inputs": [
        {
          "internalType": "contract IAIPriceOracle",
          "name": "_aiOracle",
          "type": "address"
        },
        {
          "internalType": "contract IDeliveryOracle",
          "name": "_deliveryOracle",
          "type": "address"
        },
        {
          "internalType": "contract ISSIRegistry",
          "name": "_ssi",
          "type": "address"
        },
        {
          "internalType": "contract ICreditScoreOracle",
          "name": "_credit",
          "type": "address"
        },
        {
          "internalType": "address",
          "name": "_feeReceiver",
          "type": "address"
        },
        {
          "internalType": "uint256",
          "name": "_protocolFeeBps",
          "type": "uint256"
        }
      ],
      "stateMutability": "nonpayable",
      "type": "constructor"
    },
    {
      "inputs": [
        {
          "internalType": "enum HarvestChainEscrowAI.State",
          "name": "s",
          "type": "uint8"
        }
      ],
      "name": "BadState",
      "type": "error"
    },
    {
      "inputs": [],
      "name": "NotBuyer",
      "type": "error"
    },
    {
      "inputs": [],
      "name": "NotSeller",
      "type": "error"
    },
    {
      "inputs": [],
      "name": "PastDeadline",
      "type": "error"
    },
    {
      "anonymous": false,
      "inputs": [
        {
          "indexed": true,
          "internalType": "uint256",
          "name": "id",
          "type": "uint256"
        },
        {
          "indexed": false,
          "internalType": "uint256",
          "name": "amount",
          "type": "uint256"
        },
        {
          "indexed": false,
          "internalType": "uint256",
          "name": "totalFunded",
          "type": "uint256"
        }
      ],
      "name": "BuyerFunded",
      "type": "event"
    },
    {
      "anonymous": false,
      "inputs": [
        {
          "indexed": true,
          "internalType": "uint256",
          "name": "id",
          "type": "uint256"
        },
        {
          "indexed": false,
          "internalType": "uint256",
          "name": "forfeitedToSeller",
          "type": "uint256"
        },
        {
          "indexed": false,
          "internalType": "uint256",
          "name": "refundedToBuyer",
          "type": "uint256"
        }
      ],
      "name": "BuyerSurrendered",
      "type": "event"
    },
    {
      "anonymous": false,
      "inputs": [
        {
          "indexed": true,
          "internalType": "uint256",
          "name": "id",
          "type": "uint256"
        }
      ],
      "name": "Cancelled",
      "type": "event"
    },
    {
      "anonymous": false,
      "inputs": [
        {
          "indexed": true,
          "internalType": "uint256",
          "name": "id",
          "type": "uint256"
        }
      ],
      "name": "Delivered",
      "type": "event"
    },
    {
      "anonymous": false,
      "inputs": [
        {
          "indexed": true,
          "internalType": "uint256",
          "name": "id",
          "type": "uint256"
        },
        {
          "indexed": true,
          "internalType": "address",
          "name": "seller",
          "type": "address"
        },
        {
          "indexed": false,
          "internalType": "uint256",
          "name": "unitPrice",
          "type": "uint256"
        },
        {
          "indexed": false,
          "internalType": "uint256",
          "name": "aiFloorPrice",
          "type": "uint256"
        },
        {
          "indexed": false,
          "internalType": "uint256",
          "name": "sellerBond",
          "type": "uint256"
        }
      ],
      "name": "OrderAccepted",
      "type": "event"
    },
    {
      "anonymous": false,
      "inputs": [
        {
          "indexed": true,
          "internalType": "uint256",
          "name": "id",
          "type": "uint256"
        },
        {
          "indexed": true,
          "internalType": "address",
          "name": "buyer",
          "type": "address"
        },
        {
          "indexed": false,
          "internalType": "bytes32",
          "name": "marketKey",
          "type": "bytes32"
        },
        {
          "indexed": false,
          "internalType": "uint256",
          "name": "qty",
          "type": "uint256"
        },
        {
          "indexed": false,
          "internalType": "uint256",
          "name": "maxUnitPrice",
          "type": "uint256"
        },
        {
          "indexed": false,
          "internalType": "uint256",
          "name": "depositBps",
          "type": "uint256"
        },
        {
          "indexed": false,
          "internalType": "uint256",
          "name": "forfeitBps",
          "type": "uint256"
        },
        {
          "indexed": false,
          "internalType": "uint256",
          "name": "maxDiscountBps",
          "type": "uint256"
        }
      ],
      "name": "OrderCreated",
      "type": "event"
    },
    {
      "anonymous": false,
      "inputs": [
        {
          "indexed": true,
          "internalType": "uint256",
          "name": "id",
          "type": "uint256"
        },
        {
          "indexed": false,
          "internalType": "uint256",
          "name": "amount",
          "type": "uint256"
        }
      ],
      "name": "SellerBondFunded",
      "type": "event"
    },
    {
      "anonymous": false,
      "inputs": [
        {
          "indexed": true,
          "internalType": "uint256",
          "name": "id",
          "type": "uint256"
        },
        {
          "indexed": false,
          "internalType": "address",
          "name": "seller",
          "type": "address"
        },
        {
          "indexed": false,
          "internalType": "uint256",
          "name": "sellerPayout",
          "type": "uint256"
        },
        {
          "indexed": false,
          "internalType": "uint256",
          "name": "protocolFee",
          "type": "uint256"
        },
        {
          "indexed": false,
          "internalType": "uint256",
          "name": "buyerRefund",
          "type": "uint256"
        }
      ],
      "name": "Settled",
      "type": "event"
    },
    {
      "inputs": [],
      "name": "ROLE_COOP_MEMBER",
      "outputs": [
        {
          "internalType": "bytes32",
          "name": "",
          "type": "bytes32"
        }
      ],
      "stateMutability": "view",
      "type": "function"
    },
    {
      "inputs": [
        {
          "internalType": "uint256",
          "name": "id",
          "type": "uint256"
        },
        {
          "internalType": "uint256",
          "name": "unitPrice",
          "type": "uint256"
        },
        {
          "internalType": "uint256",
          "name": "sellerBond",
          "type": "uint256"
        }
      ],
      "name": "acceptOrder",
      "outputs": [],
      "stateMutability": "nonpayable",
      "type": "function"
    },
    {
      "inputs": [],
      "name": "aiOracle",
      "outputs": [
        {
          "internalType": "contract IAIPriceOracle",
          "name": "",
          "type": "address"
        }
      ],
      "stateMutability": "view",
      "type": "function"
    },
    {
      "inputs": [
        {
          "internalType": "contract IERC20",
          "name": "token",
          "type": "address"
        },
        {
          "internalType": "bytes32",
          "name": "marketKey",
          "type": "bytes32"
        },
        {
          "internalType": "uint256",
          "name": "quantity",
          "type": "uint256"
        },
        {
          "internalType": "uint256",
          "name": "maxUnitPrice",
          "type": "uint256"
        },
        {
          "internalType": "uint256",
          "name": "depositBps",
          "type": "uint256"
        },
        {
          "internalType": "uint256",
          "name": "forfeitBps",
          "type": "uint256"
        },
        {
          "internalType": "uint256",
          "name": "maxDiscountBps",
          "type": "uint256"
        },
        {
          "internalType": "uint64",
          "name": "acceptBy",
          "type": "uint64"
        },
        {
          "internalType": "uint64",
          "name": "deliverBy",
          "type": "uint64"
        },
        {
          "internalType": "uint256",
          "name": "initialDepositAmount",
          "type": "uint256"
        }
      ],
      "name": "createOrder",
      "outputs": [
        {
          "internalType": "uint256",
          "name": "id",
          "type": "uint256"
        }
      ],
      "stateMutability": "nonpayable",
      "type": "function"
    },
    {
      "inputs": [],
      "name": "credit",
      "outputs": [
        {
          "internalType": "contract ICreditScoreOracle",
          "name": "",
          "type": "address"
        }
      ],
      "stateMutability": "view",
      "type": "function"
    },
    {
      "inputs": [],
      "name": "deliveryOracle",
      "outputs": [
        {
          "internalType": "contract IDeliveryOracle",
          "name": "",
          "type": "address"
        }
      ],
      "stateMutability": "view",
      "type": "function"
    },
    {
      "inputs": [],
      "name": "feeReceiver",
      "outputs": [
        {
          "internalType": "address",
          "name": "",
          "type": "address"
        }
      ],
      "stateMutability": "view",
      "type": "function"
    },
    {
      "inputs": [
        {
          "internalType": "uint256",
          "name": "id",
          "type": "uint256"
        },
        {
          "internalType": "uint256",
          "name": "amount",
          "type": "uint256"
        }
      ],
      "name": "fundRemainder",
      "outputs": [],
      "stateMutability": "nonpayable",
      "type": "function"
    },
    {
      "inputs": [
        {
          "internalType": "uint256",
          "name": "id",
          "type": "uint256"
        }
      ],
      "name": "markDelivered",
      "outputs": [],
      "stateMutability": "nonpayable",
      "type": "function"
    },
    {
      "inputs": [],
      "name": "nextOrderId",
      "outputs": [
        {
          "internalType": "uint256",
          "name": "",
          "type": "uint256"
        }
      ],
      "stateMutability": "view",
      "type": "function"
    },
    {
      "inputs": [
        {
          "internalType": "uint256",
          "name": "",
          "type": "uint256"
        }
      ],
      "name": "orders",
      "outputs": [
        {
          "internalType": "address",
          "name": "buyer",
          "type": "address"
        },
        {
          "internalType": "address",
          "name": "seller",
          "type": "address"
        },
        {
          "internalType": "contract IERC20",
          "name": "token",
          "type": "address"
        },
        {
          "internalType": "bytes32",
          "name": "marketKey",
          "type": "bytes32"
        },
        {
          "internalType": "uint256",
          "name": "quantity",
          "type": "uint256"
        },
        {
          "internalType": "uint256",
          "name": "unitPrice",
          "type": "uint256"
        },
        {
          "internalType": "uint256",
          "name": "notional",
          "type": "uint256"
        },
        {
          "internalType": "uint256",
          "name": "aiFloorPrice",
          "type": "uint256"
        },
        {
          "internalType": "uint256",
          "name": "depositBps",
          "type": "uint256"
        },
        {
          "internalType": "uint256",
          "name": "forfeitBps",
          "type": "uint256"
        },
        {
          "internalType": "uint256",
          "name": "maxDiscountBps",
          "type": "uint256"
        },
        {
          "internalType": "uint256",
          "name": "sellerBond",
          "type": "uint256"
        },
        {
          "internalType": "uint256",
          "name": "buyerEscrowed",
          "type": "uint256"
        },
        {
          "internalType": "uint256",
          "name": "sellerEscrowed",
          "type": "uint256"
        },
        {
          "internalType": "enum HarvestChainEscrowAI.State",
          "name": "state",
          "type": "uint8"
        },
        {
          "internalType": "uint64",
          "name": "createdAt",
          "type": "uint64"
        },
        {
          "internalType": "uint64",
          "name": "acceptBy",
          "type": "uint64"
        },
        {
          "internalType": "uint64",
          "name": "deliverBy",
          "type": "uint64"
        }
      ],
      "stateMutability": "view",
      "type": "function"
    },
    {
      "inputs": [],
      "name": "protocolFeeBps",
      "outputs": [
        {
          "internalType": "uint256",
          "name": "",
          "type": "uint256"
        }
      ],
      "stateMutability": "view",
      "type": "function"
    },
    {
      "inputs": [
        {
          "internalType": "uint256",
          "name": "id",
          "type": "uint256"
        }
      ],
      "name": "settle",
      "outputs": [],
      "stateMutability": "nonpayable",
      "type": "function"
    },
    {
      "inputs": [],
      "name": "ssi",
      "outputs": [
        {
          "internalType": "contract ISSIRegistry",
          "name": "",
          "type": "address"
        }
      ],
      "stateMutability": "view",
      "type": "function"
    },
    {
      "inputs": [
        {
          "internalType": "uint256",
          "name": "id",
          "type": "uint256"
        }
      ],
      "name": "surrender",
      "outputs": [],
      "stateMutability": "nonpayable",
      "type": "function"
    }
  ],
  "bytecode": "0x6080346100e857601f61150d38819003918201601f19168301916001600160401b038311848410176100ed5780849260c0946040528339810103126100e85780516001600160a01b0390818116908190036100e8576020830151928284168094036100e85760408101518381168091036100e8576060820151918483168093036100e85760808101519485168095036100e85760a0015194600160005560018060a01b0319938460015416176001558360025416176002558260035416176003558160045416176004556005541617600555600655600160075560405161140990816101048239f35b600080fd5b634e487b7160e01b600052604160045260246000fdfe608080604052600436101561001357600080fd5b60003560e01c9081632a58b330146111685750806331b221cd1461113f57806335659fb814611121578063539bcd711461102557806353fd049614610fea578063854ffeee14610c435780638df8280014610a5d578063a06d083c14610a34578063a85c38ef14610912578063b3f00674146108e9578063b8917b3b146108c0578063c6e0226014610461578063ca9588b914610438578063eb826a5f146102b15763fd61d10b146100c457600080fd5b346102ac5760203660031901126102ac576004356100e6600160005414611190565b6002600090815581815260086020526040902080546001600160a01b0391908216330361029a57600e810180549060ff82169160078310156102845785947ff149378791e2c09b0bd5eb438144f87dc27e6bfd440f027f980ad4b89bc43e4e9461015e85600260409714908115610279575b506111c9565b61017a610186600683015461271092839160088601549061125e565b0460098401549061125e565b0493600c8201549485811160001461026c575060066101a58680611251565b9460ff19161790558315158061025d575b610240575b82610226575b600d8101549081610207575b50505082519182526020820152a27fc41d93b8bfbf9fd7cf5bfe271fd649ab6a6fec0ea101c23b82a2a28eca2533a9600080a26001600055005b82600161021e94600284015416920154169061132b565b3880806101cd565b61023b8383600284015416848454169061132b565b6101c1565b6102588483600284015416846001850154169061132b565b6101bb565b508160018201541615156101b6565b6101a56006918097611251565b600391501438610158565b634e487b7160e01b600052602160045260246000fd5b60405163239700bf60e11b8152600490fd5b600080fd5b346102ac576020806003193601126102ac57600435908160005260088152600e6040600020019081549060ff82166007811015610284576003036104075767ffffffffffffffff8260881c1680151590816103fd575b506103eb57600254604051636e6db4e960e11b815260048101869052908290829060249082906001600160a01b03165afa9081156103df576000916103b2575b501561037e575060ff191660041790557ffcc296b8bdd64e3f1d1faadef50cb2d6550f645316330fe57cb1dd7e0612ead0600080a2005b6064906040519062461bcd60e51b82526004820152600d60248201526c1b9bdd0819195b1a5d995c9959609a1b6044820152fd5b6103d29150823d84116103d8575b6103ca8183611201565b810190611239565b85610347565b503d6103c0565b6040513d6000823e3d90fd5b6040516381efbd8d60e01b8152600490fd5b9050421185610307565b6064906040519062461bcd60e51b82526004820152600a6024820152691b9bdd08199d5b99195960b21b6044820152fd5b346102ac5760003660031901126102ac576003546040516001600160a01b039091168152602090f35b346102ac576101403660031901126102ac576004356001600160a01b03811690036102ac5767ffffffffffffffff60e4351660e435036102ac5767ffffffffffffffff610104351661010435036102ac576104c0600160005414611190565b60026000556044351515806108b5575b1561088457608435151580610876575b156108435761138860a4351161080b576107d060c435116107d257600754600019811461072357600181016007558060005260086020526040600020906bffffffffffffffffffffffff60a01b3381845416178355600283019060018060a01b03600435169082541617905560243560038301556044356004830155606435600583015561057260643560443561125e565b6006830155608435600883015560a435600983015560c435600a830155600e82016001815468ffffffffffffffff004260081b169066ffffffffffffff60c81b161770ffffffffffffffff00000000000000000060e43560481b161767ffffffffffffffff60881b6101043560881b16171790556024604060018060a01b0360045416815192838092630d47875d60e41b82523360048301525afa80156103df5760009061077d575b61ffff91501661032081101580610770575b1561073957506084356103e71981019081116107235760088301555b61271061065f600684015460088501549061125e565b0461012435036106eb57600860209261067f610124353033600435611271565b61012435600c8201550154604051906024358252604435848301526064356040830152606082015260a435608082015260c43560a0820152817f732245d39ce385956933fef4ea2005dc25a945f4380485f97d56ae7bedb9bc3c60c03393a36001600055604051908152f35b60405162461bcd60e51b815260206004820152601060248201526f0c8cae0dee6d2e840dad2e6dac2e8c6d60831b6044820152606490fd5b634e487b7160e01b600052601160045260246000fd5b6102bc111580610763575b15610649576084356101f3198101908111610723576008830155610649565b506109c460843511610744565b506107d06084351161062d565b506040813d6040116107ca575b8161079760409383611201565b810103126102ac5780519061ffff821682036102ac576020015167ffffffffffffffff8116036102ac5761ffff9061061b565b3d915061078a565b60405162461bcd60e51b81526020600482015260116024820152700c8d2e6c6deeadce840e8dede40d0d2ced607b1b6044820152606490fd5b60405162461bcd60e51b815260206004820152601060248201526f0ccdee4cccad2e840e8dede40d0d2ced60831b6044820152606490fd5b60405162461bcd60e51b815260206004820152600b60248201526a1898590819195c1bdcda5d60aa1b6044820152606490fd5b5061271060843511156104e0565b60405162461bcd60e51b8152602060048201526009602482015268626164207465726d7360b81b6044820152606490fd5b5060643515156104d0565b346102ac5760003660031901126102ac576002546040516001600160a01b039091168152602090f35b346102ac5760003660031901126102ac576005546040516001600160a01b039091168152602090f35b346102ac5760203660031901126102ac5760043560005260086020526040600020600160a01b60019003908181541690826001820154169260028201541660038201546004830154600584015460068501546007860154600887015491600988015493600a89015495600b8a015497600c8b015499600d8c01549b600e01549c6040519e8f91825260208201526040015260608d015260808c015260a08b015260c08a015260e08901526101008801526101208701526101408601526101608501526101808401526101a08301526101c0820160ff8216906109f391611183565b8060081c67ffffffffffffffff166101e08301528060481c67ffffffffffffffff1661020083015260881c67ffffffffffffffff1661022082015261024090f35b346102ac5760003660031901126102ac576004546040516001600160a01b039091168152602090f35b346102ac5760203660031901126102ac57600435610a7f600160005414611190565b60026000558060005260086020526040600020600e8101805460ff81166007811015610284576004610ab191146111c9565b600c8301928354600682018054809210610c08577fb2790cfbb501cb5d139a6d2e6b8157f1e9fc7043f1354b6645d9accfa9d95582956080956006548015600014610bee57506005610b0560008096611251565b9660ff191617905582151580610bda575b610bb5575b60028401610b5760018060a01b03938483541693610b428960018a0196888854169061132b565b600d88015480610b9d575b5054905490611251565b80958482610b84575b50505050541692604051938452602084015260408301526060820152a26001600055005b80610b949454169154169061132b565b88848184610b60565b610baf9087865416888854169061132b565b8c610b4d565b6002840154600554610bd59185916001600160a01b03908116911661132b565b610b1b565b506005546001600160a01b03161515610b16565b610b05612710610c006005938861125e565b048096611251565b60405162461bcd60e51b8152602060048201526013602482015272696e73756666696369656e7420657363726f7760681b6044820152606490fd5b346102ac576060806003193601126102ac57600435906024918235916044803590610c72600160005414611190565b6002600055836000526020600881526040600020600e81019081549160ff83166007811015610fd55760018103610fb6575067ffffffffffffffff8360481c168015159081610fac575b506103eb5788151580610f9e575b15610f6a5760035460405163de11892b60e01b81523360048201527f5b553d59dc30e2ce5ac2082a51edb1c07fdd592ce74fe731cd380c27e4e79922818d01526001600160a01b039491869082908990829089165afa9081156103df57600091610f4d575b5015610f1b578360015416958860038501548d604051809a819363d15d258760e01b835260048301525afa9687156103df57600097610eec575b508615610eb357600a840154612710908103818111610e9e57610d8c908961125e565b048b10610e6b57507f5a6ace7e08652681417a3b2cdf1a091d68b8bb347f8215164379d8e14e191af598999a5090600283928760078a979601558c6005850155610dda8d600486015461125e565b60068501556001840180546001600160a01b0319163317905560ff191617905582610e1b575b50505060405196875286015260408501523393a36001600055005b610e3783600d9381600b85015560028401541630903390611271565b0155857f03e157917fabbe1d418840c96b6bcc52532d3126409c286c11a4b2713d5afc0282604051868152a2828880610e00565b856d3ab73232b91020a490333637b7b960911b606492600e8f6040519462461bcd60e51b86526004860152840152820152fd5b8d634e487b7160e01b60005260116004526000fd5b8573414920707269636520756e617661696c61626c6560601b60649260148f6040519462461bcd60e51b86526004860152840152820152fd5b9096508881813d8311610f14575b610f048183611201565b810103126102ac5751958c610d69565b503d610efa565b60405162461bcd60e51b815260048101869052600c818d01526b14d4d2481c995c5d5a5c995960a21b81880152606490fd5b610f649150863d88116103d8576103ca8183611201565b8c610d2f565b60405162461bcd60e51b815260048101859052600e818c01526d0e0e4d2c6ca40e8dede40d0d2ced60931b81870152606490fd5b506005820154891115610cca565b905042118b610cbc565b6040516373f629b760e11b81528b91610fd3906004830190611183565bfd5b8a634e487b7160e01b60005260216004526000fd5b346102ac5760003660031901126102ac5760206040517f5b553d59dc30e2ce5ac2082a51edb1c07fdd592ce74fe731cd380c27e4e799228152f35b346102ac5760403660031901126102ac5760043560243561104a600160005414611190565b6002600090815582815260086020526040902080546001600160a01b0392908316330361029a57600e82019260ff8454166007811015610284576110ad9161109e82600286941490811561111657506111c9565b60028501541630903390611271565b600c820192835490828201809211610723576006604094837fe15caabf05531988dfbf1d9e03e2fbe08b9e6b6b21be88cc84dc434b14f3144e97550154821015611105575b5082519182526020820152a26001600055005b805460ff19166003179055856110f2565b600391501489610158565b346102ac5760003660031901126102ac576020600654604051908152f35b346102ac5760003660031901126102ac576001546040516001600160a01b039091168152602090f35b346102ac5760003660031901126102ac576020906007548152f35b9060078210156102845752565b1561119757565b60405162461bcd60e51b815260206004820152600a6024820152695245454e5452414e435960b01b6044820152606490fd5b156111d057565b60405162461bcd60e51b815260206004820152600960248201526862616420737461746560b81b6044820152606490fd5b90601f8019910116810190811067ffffffffffffffff82111761122357604052565b634e487b7160e01b600052604160045260246000fd5b908160209103126102ac575180151581036102ac5790565b9190820391821161072357565b8181029291811591840414171561072357565b6040516323b872dd60e01b81526001600160a01b03928316600482015292821660248401526044830193909352909160209183916064918391600091165af19081156103df5760009161130c575b50156112c757565b60405162461bcd60e51b815260206004820152601960248201527f4552433230207472616e7366657246726f6d206661696c6564000000000000006044820152606490fd5b611325915060203d6020116103d8576103ca8183611201565b386112bf565b60405163a9059cbb60e01b81526001600160a01b039283166004820152602481019390935260209183916044918391600091165af19081156103df576000916113b4575b501561137757565b60405162461bcd60e51b8152602060048201526015602482015274115490cc8c081d1c985b9cd9995c8819985a5b1959605a1b6044820152606490fd5b6113cd915060203d6020116103d8576103ca8183611201565b3861136f56fea26469706673582212203b6c79cacf6d538becdc1182dcb3364c80e79e5139618362580f2bc997ab177664736f6c63430008180033",
  "linkReferences": {},
  "deployedLinkReferences": {}
}